11:42:04.766656 IP BP-Linux8.ssh > 192.168.190.130.50019: Flags [P.], seq 2243505564:2243505672, ack 1972915080, win 312, options [nop,nop,TS val 102917262 ecr 377952805], length 108
	0x0000:  4512 00a0 ed8e 4000 4006 99c5 c0a8 731e
	0x0010:  c0a8 be82 0016 c363 85b9 2d9c 7598 4b88
	0x0020:  8018 0138 b384 0000 0101 080a 0622 648e
	0x0030:  1687 1a25 ae15 ed2e 0c2f 724d ce51 edd7
	0x0040:  7d02 fe64 9fe0 4a61 9f85 9b92 25bd 5d15
	0x0050:  3f8a c2ce 11b4 31b1 a9ce 379e a9e1 a0f6
	0x0060:  770c 9e91 fba6 f9b6 9a66 6776 b1ac ceb7
	0x0070:  de8b ae6c cd01 6ab9 ec07 836d 3e04 8404
	0x0080:  f841 fc74 fc9f 4070 a9e0 2021 ecff 230a
	0x0090:  3839 d986 d960 3ae4 768b d58b 8042 546f
11:42:04.766694 IP BP-Linux8.ssh > 192.168.190.130.50019: Flags [P.], seq 108:144, ack 1, win 312, options [nop,nop,TS val 102917262 ecr 377952805], length 36
	0x0000:  4512 0058 ed8f 4000 4006 9a0c c0a8 731e
	0x0010:  c0a8 be82 0016 c363 85b9 2e08 7598 4b88
	0x0020:  8018 0138 b33c 0000 0101 080a 0622 648e
	0x0030:  1687 1a25 7542 8c6a 4716 b8b1 814a a832
	0x0040:  1ffd 18e5 a520 f808 5b8e beac 19b7 4796
	0x0050:  8bdc 9155 ee2a d6b3
11:42:04.766723 IP BP-Linux8.ssh > 192.168.190.130.50019: Flags [P.], seq 144:252, ack 1, win 312, options [nop,nop,TS val 102917262 ecr 377952805], length 108
	0x0000:  4512 00a0 ed90 4000 4006 99c3 c0a8 731e
	0x0010:  c0a8 be82 0016 c363 85b9 2e2c 7598 4b88
	0x0020:  8018 0138 b384 0000 0101 080a 0622 648e
	0x0030:  1687 1a25 d509 725b 22b9 f3ea 425a 9a86
	0x0040:  6237 27c1 e44c 90d8 f41a 0379 9244 9974
	0x0050:  a96d c4db c22d a980 f551 d0ad 645a 9a07
	0x0060:  a058 b9fd dfd1 9eed 1200 6e1d 5006 e57d
	0x0070:  0f4a e594 88ad fc35 b000 73be 4a0a 3c01
	0x0080:  4377 aec1 409a 9655 ef7e a495 7b54 a3ef
	0x0090:  70ff ef58 54c6 fe50 0b48 74d4 eea8 5218
11:42:04.766744 IP BP-Linux8.ssh > 192.168.190.130.50019: Flags [P.], seq 252:288, ack 1, win 312, options [nop,nop,TS val 102917262 ecr 377952805], length 36
	0x0000:  4512 0058 ed91 4000 4006 9a0a c0a8 731e
	0x0010:  c0a8 be82 0016 c363 85b9 2e98 7598 4b88
	0x0020:  8018 0138 b33c 0000 0101 080a 0622 648e
	0x0030:  1687 1a25 762c a5f3 a57f 03d2 b4e8 ea21
	0x0040:  0e92 71fb f4eb 1c74 b6c8 277d bfef 0b4a
	0x0050:  2678 46b9 82e9 b470
11:42:04.785366 IP 192.168.190.130.50019 > BP-Linux8.ssh: Flags [.], ack 108, win 7319, options [nop,nop,TS val 377953205 ecr 102917262], length 0
	0x0000:  4548 0034 0000 4000 3f06 888a c0a8 be82
	0x0010:  c0a8 731e c363 0016 7598 4b88 85b9 2e08
	0x0020:  8010 1c97 d1eb 0000 0101 080a 1687 1bb5
	0x0030:  0622 648e
11:42:04.785384 IP 192.168.190.130.50019 > BP-Linux8.ssh: Flags [.], ack 144, win 7318, options [nop,nop,TS val 377953205 ecr 102917262], length 0
	0x0000:  4548 0034 0000 4000 3f06 888a c0a8 be82
	0x0010:  c0a8 731e c363 0016 7598 4b88 85b9 2e2c
	0x0020:  8010 1c96 d1c8 0000 0101 080a 1687 1bb5
	0x0030:  0622 648e
11:42:04.785406 IP 192.168.190.130.50019 > BP-Linux8.ssh: Flags [.], ack 252, win 7316, options [nop,nop,TS val 377953205 ecr 102917262], length 0
	0x0000:  4548 0034 0000 4000 3f06 888a c0a8 be82
	0x0010:  c0a8 731e c363 0016 7598 4b88 85b9 2e98
	0x0020:  8010 1c94 d15e 0000 0101 080a 1687 1bb5
	0x0030:  0622 648e
11:42:12.689549 IP BP-Linux8 > 192.168.115.1: ICMP echo request, id 27625, seq 1, length 64
	0x0000:  4500 0054 2496 4000 4001 aea2 c0a8 731e
	0x0010:  c0a8 7301 0800 492a 6be9 0001 0401 c361
	0x0020:  8685 0a00 0809 0a0b 0c0d 0e0f 1011 1213
	0x0030:  1415 1617 1819 1a1b 1c1d 1e1f 2021 2223
	0x0040:  2425 2627 2829 2a2b 2c2d 2e2f 3031 3233
	0x0050:  3435 3637
11:42:12.689691 IP 192.168.115.1 > BP-Linux8: ICMP echo reply, id 27625, seq 1, length 64
	0x0000:  4500 0054 0000 4000 4001 d338 c0a8 7301
	0x0010:  c0a8 731e 0000 512a 6be9 0001 0401 c361
	0x0020:  8685 0a00 0809 0a0b 0c0d 0e0f 1011 1213
	0x0030:  1415 1617 1819 1a1b 1c1d 1e1f 2021 2223
	0x0040:  2425 2627 2829 2a2b 2c2d 2e2f 3031 3233
	0x0050:  3435 3637
11:42:12.689741 IP BP-Linux8.ssh > 192.168.190.130.50245: Flags [P.], seq 1153:1253, ack 160, win 291, options [nop,nop,TS val 102919243 ecr 377961076], length 100
	0x0000:  4512 0098 0ece 4000 4006 788e c0a8 731e
	0x0010:  c0a8 be82 0016 c445 6e57 985c 5f79 f5f2
	0x0020:  8018 0123 b37c 0000 0101 080a 0622 6c4b
	0x0030:  1687 3a74 858e 55ea 7a7d 36ad 6775 ca51
	0x0040:  6839 a228 4c5f 3eaa d46a 7e8f ac7d aa0b
	0x0050:  c2cc f961 74ac b666 4eba fa91 ecfb 5809
	0x0060:  4e79 8188 c7ec e572 9900 532e a372 8df1
	0x0070:  c65e 2df3 8b73 beb1 e4fc 9ff3 e464 8454
	0x0080:  2180 a159 cd29 8de3 ac38 c6a1 bc6e bc3f
	0x0090:  3732 00b8 8001 baa0
11:42:12.689769 IP BP-Linux8.ssh > 192.168.190.130.50245: Flags [P.], seq 1253:1289, ack 160, win 291, options [nop,nop,TS val 102919243 ecr 377961076], length 36
	0x0000:  4512 0058 0ecf 4000 4006 78cd c0a8 731e
	0x0010:  c0a8 be82 0016 c445 6e57 98c0 5f79 f5f2
	0x0020:  8018 0123 b33c 0000 0101 080a 0622 6c4b
	0x0030:  1687 3a74 2a47 3fad fb8b c4a7 e235 4b09
	0x0040:  de09 d246 0bda 31b9 139a 3767 710a 298d
	0x0050:  8662 14cb d863 8d78
11:42:12.705320 IP 192.168.190.130.50245 > BP-Linux8.ssh: Flags [.], ack 1025, win 2047, options [nop,nop,TS val 377961096 ecr 102919242], length 0
	0x0000:  4548 0034 0000 4000 3f06 888a c0a8 be82
	0x0010:  c0a8 731e c445 0016 5f79 f5f2 6e57 97dc
	0x0020:  8010 07ff d854 0000 0101 080a 1687 3a88
	0x0030:  0622 6c4a
11:42:12.705471 IP BP-Linux8.50542 > ns1.lan.rt.domain: 45982+ PTR? 194.112.166.35.in-addr.arpa. (45)
	0x0000:  4500 0049 87a3 4000 4011 7a33 c0a8 731e
	0x0010:  0afa fa0c c56e 0035 0035 3914 b39e 0100
	0x0020:  0001 0000 0000 0000 0331 3934 0331 3132
	0x0030:  0331 3636 0233 3507 696e 2d61 6464 7204
	0x0040:  6172 7061 0000 0c00 01
11:42:12.708725 IP BP-Linux8.51712 > server-54-230-114-73.mrs52.r.cloudfront.net.https: Flags [.], ack 4195674092, win 3715, options [nop,nop,TS val 102919248 ecr 36590409], length 0
	0x0000:  4500 0034 9b97 4000 4006 c236 c0a8 731e
	0x0010:  36e6 7249 ca00 01bb 6c2e b0eb fa14 e7ec
	0x0020:  8010 0e83 dd1c 0000 0101 080a 0622 6c50
	0x0030:  022e 5349
11:42:12.709305 IP 192.168.190.130.50245 > BP-Linux8.ssh: Flags [.], ack 1117, win 2046, options [nop,nop,TS val 377961099 ecr 102919243], length 0
	0x0000:  4548 0034 0000 4000 3f06 888a c0a8 be82
	0x0010:  c0a8 731e c445 0016 5f79 f5f2 6e57 9838
	0x0020:  8010 07fe d7f5 0000 0101 080a 1687 3a8b
	0x0030:  0622 6c4b
11:42:12.709323 IP 192.168.190.130.50245 > BP-Linux8.ssh: Flags [.], ack 1153, win 2046, options [nop,nop,TS val 377961099 ecr 102919243], length 0
	0x0000:  4548 0034 0000 4000 3f06 888a c0a8 be82
	0x0010:  c0a8 731e c445 0016 5f79 f5f2 6e57 985c
	0x0020:  8010 07fe d7d1 0000 0101 080a 1687 3a8b
	0x0030:  0622 6c4b
11:42:12.709342 IP 192.168.190.130.50245 > BP-Linux8.ssh: Flags [.], ack 1253, win 2044, options [nop,nop,TS val 377961099 ecr 102919243], length 0
	0x0000:  4548 0034 0000 4000 3f06 888a c0a8 be82
	0x0010:  c0a8 731e c445 0016 5f79 f5f2 6e57 98c0
	0x0020:  8010 07fc d76f 0000 0101 080a 1687 3a8b
	0x0030:  0622 6c4b
11:42:12.709411 IP 192.168.190.130.50245 > BP-Linux8.ssh: Flags [.], ack 1289, win 2047, options [nop,nop,TS val 377961099 ecr 102919243], length 0
	0x0000:  4548 0034 0000 4000 3f06 888a c0a8 be82
	0x0010:  c0a8 731e c445 0016 5f79 f5f2 6e57 98e4
	0x0020:  8010 07ff d748 0000 0101 080a 1687 3a8b
	0x0030:  0622 6c4b
11:42:12.715072 IP server-54-230-114-73.mrs52.r.cloudfront.net.https > BP-Linux8.51712: Flags [.], ack 1, win 12, options [nop,nop,TS val 36600425 ecr 102904225], length 0
	0x0000:  4500 0034 8005 0000 eb06 72c8 36e6 7249
	0x0010:  c0a8 731e 01bb ca00 fa14 e7ec 6c2e b0ec
	0x0020:  8010 000c 1a88 0000 0101 080a 022e 7a69
	0x0030:  0622 31a1
11:42:12.726330 IP ec2-34-211-70-226.us-west-2.compute.amazonaws.com.https > BP-Linux8.54473: Flags [P.], seq 3244240218:3244240249, ack 2597773766, win 114, options [nop,nop,TS val 615318984 ecr 102904194], length 31
	0x0000:  4520 0053 a0f3 4000 d806 6415 22d3 46e2
	0x0010:  c0a8 731e 01bb d4c9 c15f 2d5a 9ad6 e1c6
	0x0020:  8018 0072 522c 0000 0101 080a 24ad 05c8
	0x0030:  0622 3182 1503 0300 1a0a 42fd 2cd9 ba4f
	0x0040:  a012 10e6 637d 67a3 136c 0ee4 9088 4401
	0x0050:  7e5f 95
11:42:12.726464 IP BP-Linux8.54473 > ec2-34-211-70-226.us-west-2.compute.amazonaws.com.https: Flags [F.], seq 1, ack 31, win 312, options [nop,nop,TS val 102919252 ecr 615318984], length 0
	0x0000:  4500 0034 eedf 4000 4006 ae68 c0a8 731e
	0x0010:  22d3 46e2 d4c9 01bb 9ad6 e1c6 c15f 2d79
	0x0020:  8011 0138 9da2 0000 0101 080a 0622 6c54
	0x0030:  24ad 05c8
11:42:12.756150 IP ns1.lan.rt.domain > BP-Linux8.50542: 45982 1/0/0 PTR ec2-35-166-112-194.us-west-2.compute.amazonaws.com. (109)
	0x0000:  4500 0089 5aff 0000 7f11 a797 0afa fa0c
	0x0010:  c0a8 731e 0035 c56e 0075 f800 b39e 8180
	0x0020:  0001 0001 0000 0000 0331 3934 0331 3132
	0x0030:  0331 3636 0233 3507 696e 2d61 6464 7204
	0x0040:  6172 7061 0000 0c00 01c0 0c00 0c00 0100
	0x0050:  0001 2b00 3412 6563 322d 3335 2d31 3636
	0x0060:  2d31 3132 2d31 3934 0975 732d 7765 7374
	0x0070:  2d32 0763 6f6d 7075 7465 0961 6d61 7a6f
	0x0080:  6e61 7773 0363 6f6d 00
11:42:12.756373 IP BP-Linux8.39368 > ns1.lan.rt.domain: 1029+ PTR? 1.115.168.192.in-addr.arpa. (44)
	0x0000:  4500 0048 87aa 4000 4011 7a2d c0a8 731e
	0x0010:  0afa fa0c 99c8 0035 0034 3913 0405 0100
	0x0020:  0001 0000 0000 0000 0131 0331 3135 0331
	0x0030:  3638 0331 3932 0769 6e2d 6164 6472 0461
	0x0040:  7270 6100 000c 0001
11:42:12.756926 IP ns1.lan.rt.domain > BP-Linux8.39368: 1029 NXDomain 0/1/0 (110)
	0x0000:  4500 008a 5b00 0000 7f11 a795 0afa fa0c
	0x0010:  c0a8 731e 0035 99c8 0076 96c1 0405 8183
	0x0020:  0001 0000 0001 0000 0131 0331 3135 0331
	0x0030:  3638 0331 3932 0769 6e2d 6164 6472 0461
	0x0040:  7270 6100 000c 0001 c012 0006 0001 0000
	0x0050:  0118 0036 0673 7472 6f70 680f 756e 6976
	0x0060:  2d73 742d 6574 6965 6e6e 6502 6672 0004
	0x0070:  726f 6f74 c03f 7877 ddde 0000 5460 0000
	0x0080:  0e10 000d 2f00 0000 2a30
11:42:12.820101 IP ec2-35-166-112-194.us-west-2.compute.amazonaws.com.https > BP-Linux8.48702: Flags [F.], seq 31, ack 2, win 123, options [nop,nop,TS val 1975406892 ecr 102919231], length 0
	0x0000:  4520 0034 73a4 4000 d806 66d0 23a6 70c2
	0x0010:  c0a8 731e 01bb be3e 9278 763e 97ab f0b4
	0x0020:  8011 007b 23b5 0000 0101 080a 75be 512c
	0x0030:  0622 6c3f
11:42:12.820113 IP BP-Linux8.48702 > ec2-35-166-112-194.us-west-2.compute.amazonaws.com.https: Flags [.], ack 32, win 319, options [nop,nop,TS val 102919275 ecr 1975406892], length 0
	0x0000:  4500 0034 de33 4000 4006 9461 c0a8 731e
	0x0010:  23a6 70c2 be3e 01bb 97ab f0b4 9278 763f
	0x0020:  8010 013f c855 0000 0101 080a 0622 6c6b
	0x0030:  75be 512c
11:42:12.904414 IP ec2-34-211-70-226.us-west-2.compute.amazonaws.com.https > BP-Linux8.54473: Flags [F.], seq 31, ack 2, win 114, options [nop,nop,TS val 615319163 ecr 102919252], length 0
	0x0000:  4520 0034 a0f4 4000 d806 6433 22d3 46e2
	0x0010:  c0a8 731e 01bb d4c9 c15f 2d79 9ad6 e1c7
	0x0020:  8011 0072 f933 0000 0101 080a 24ad 067b
	0x0030:  0622 6c54
11:42:12.904425 IP BP-Linux8.54473 > ec2-34-211-70-226.us-west-2.compute.amazonaws.com.https: Flags [.], ack 32, win 312, options [nop,nop,TS val 102919296 ecr 615319163], length 0
	0x0000:  4500 0034 eee0 4000 4006 ae67 c0a8 731e
	0x0010:  22d3 46e2 d4c9 01bb 9ad6 e1c7 c15f 2d7a
	0x0020:  8010 0138 9da2 0000 0101 080a 0622 6c80
	0x0030:  24ad 067b
11:42:13.502107 IP BP-Linux8.48782 > server-54-230-114-122.mrs52.r.cloudfront.net.https: Flags [P.], seq 4043945820:4043945866, ack 2874145239, win 363, options [nop,nop,TS val 102919446 ecr 3254940199], length 46
	0x0000:  4500 0062 87fe 4000 4006 d570 c0a8 731e
	0x0010:  36e6 727a be8e 01bb f109 b75c ab4f f9d7
	0x0020:  8018 016b dd7b 0000 0101 080a 0622 6d16
	0x0030:  c202 7227 1703 0300 2900 0000 0000 0000
	0x0040:  042c 139f 5665 5adf acb7 81d1 eb74 b955
	0x0050:  8fc8 237b d1e5 180e 6e28 396b c739 d7f9
	0x0060:  f3f4
11:42:13.508523 IP server-54-230-114-122.mrs52.r.cloudfront.net.https > BP-Linux8.48782: Flags [.], ack 46, win 10, options [nop,nop,TS val 3254998497 ecr 102919446], length 0
	0x0000:  4500 0034 37ba 0000 eb06 bae2 36e6 727a
	0x0010:  c0a8 731e 01bb be8e ab4f f9d7 f109 b78a
	0x0020:  8010 000a 0069 0000 0101 080a c203 55e1
	0x0030:  0622 6d16
11:42:13.508705 IP server-54-230-114-122.mrs52.r.cloudfront.net.https > BP-Linux8.48782: Flags [P.], seq 1:47, ack 46, win 10, options [nop,nop,TS val 3254998498 ecr 102919446], length 46
	0x0000:  4500 0062 37bb 0000 eb06 bab3 36e6 727a
	0x0010:  c0a8 731e 01bb be8e ab4f f9d7 f109 b78a
	0x0020:  8018 000a b7c8 0000 0101 080a c203 55e2
	0x0030:  0622 6d16 1703 0300 2900 0000 0000 0000
	0x0040:  031d 24f4 a8f2 8339 f5d0 d02f 9b9a f321
	0x0050:  5e28 c1d7 26f1 72a4 37ea e698 7bce 21ab
	0x0060:  e6d8
11:42:13.508709 IP BP-Linux8.48782 > server-54-230-114-122.mrs52.r.cloudfront.net.https: Flags [.], ack 47, win 363, options [nop,nop,TS val 102919447 ecr 3254998498], length 0
	0x0000:  4500 0034 87ff 4000 4006 d59d c0a8 731e
	0x0010:  36e6 727a be8e 01bb f109 b78a ab4f fa05
	0x0020:  8010 016b dd4d 0000 0101 080a 0622 6d17
	0x0030:  c203 55e2
11:42:13.688767 IP BP-Linux8 > 192.168.115.1: ICMP echo request, id 27625, seq 2, length 64
	0x0000:  4500 0054 2516 4000 4001 ae22 c0a8 731e
	0x0010:  c0a8 7301 0800 5c2c 6be9 0002 0501 c361
	0x0020:  7282 0a00 0809 0a0b 0c0d 0e0f 1011 1213
	0x0030:  1415 1617 1819 1a1b 1c1d 1e1f 2021 2223
	0x0040:  2425 2627 2829 2a2b 2c2d 2e2f 3031 3233
	0x0050:  3435 3637
11:42:13.688876 IP 192.168.115.1 > BP-Linux8: ICMP echo reply, id 27625, seq 2, length 64
	0x0000:  4500 0054 0000 4000 4001 d338 c0a8 7301
	0x0010:  c0a8 731e 0000 642c 6be9 0002 0501 c361
	0x0020:  7282 0a00 0809 0a0b 0c0d 0e0f 1011 1213
	0x0030:  1415 1617 1819 1a1b 1c1d 1e1f 2021 2223
	0x0040:  2425 2627 2829 2a2b 2c2d 2e2f 3031 3233
	0x0050:  3435 3637
11:42:13.688952 IP BP-Linux8.ssh > 192.168.190.130.50245: Flags [P.], seq 1289:1389, ack 160, win 291, options [nop,nop,TS val 102919493 ecr 377961099], length 100
	0x0000:  4512 0098 0ed0 4000 4006 788c c0a8 731e
	0x0010:  c0a8 be82 0016 c445 6e57 98e4 5f79 f5f2
	0x0020:  8018 0123 b37c 0000 0101 080a 0622 6d45
	0x0030:  1687 3a8b 221e 9532 9ee4 17e7 8bc2 2239
	0x0040:  e2fa 5f61 6a59 6e9e 30aa 9019 4c36 9dd0
	0x0050:  10d1 b87e 4c5b 82c1 38bb 0b26 ad63 f704
	0x0060:  d8a6 09e8 93fc af40 2c02 565d 7e31 cc22
	0x0070:  202e d854 af92 8d81 e7db 8aa3 2a9f 79e8
	0x0080:  cf5e 82ce e28a d81a fd4f 9ce6 c061 e0e1
	0x0090:  b31f cf10 5970 b344
11:42:13.709324 IP 192.168.190.130.50245 > BP-Linux8.ssh: Flags [.], ack 1389, win 2046, options [nop,nop,TS val 377962094 ecr 102919493], length 0
	0x0000:  4548 0034 0000 4000 3f06 888a c0a8 be82
	0x0010:  c0a8 731e c445 0016 5f79 f5f2 6e57 9948
	0x0020:  8010 07fe d208 0000 0101 080a 1687 3e6e
	0x0030:  0622 6d45
11:42:13.709492 IP BP-Linux8.55923 > ns1.lan.rt.domain: 11066+ PTR? 73.114.230.54.in-addr.arpa. (44)
	0x0000:  4500 0048 8867 4000 4011 7970 c0a8 731e
	0x0010:  0afa fa0c da73 0035 0034 3913 2b3a 0100
	0x0020:  0001 0000 0000 0000 0237 3303 3131 3403
	0x0030:  3233 3002 3534 0769 6e2d 6164 6472 0461
	0x0040:  7270 6100 000c 0001
11:42:13.737055 IP ns1.lan.rt.domain > BP-Linux8.55923: 11066 1/0/0 PTR server-54-230-114-73.mrs52.r.cloudfront.net. (101)
	0x0000:  4500 0081 5b01 0000 7f11 a79d 0afa fa0c
	0x0010:  c0a8 731e 0035 da73 006d 39dc 2b3a 8180
	0x0020:  0001 0001 0000 0000 0237 3303 3131 3403
	0x0030:  3233 3002 3534 0769 6e2d 6164 6472 0461
	0x0040:  7270 6100 000c 0001 c00c 000c 0001 0001
	0x0050:  4326 002d 1473 6572 7665 722d 3534 2d32
	0x0060:  3330 2d31 3134 2d37 3305 6d72 7335 3201
	0x0070:  720a 636c 6f75 6466 726f 6e74 036e 6574
	0x0080:  00
11:42:13.737200 IP BP-Linux8.45779 > ns1.lan.rt.domain: 29684+ PTR? 226.70.211.34.in-addr.arpa. (44)
	0x0000:  4500 0048 8869 4000 4011 796e c0a8 731e
	0x0010:  0afa fa0c b2d3 0035 0034 3913 73f4 0100
	0x0020:  0001 0000 0000 0000 0332 3236 0237 3003
	0x0030:  3231 3102 3334 0769 6e2d 6164 6472 0461
	0x0040:  7270 6100 000c 0001
11:42:13.780454 IP ns1.lan.rt.domain > BP-Linux8.45779: 29684 1/0/0 PTR ec2-34-211-70-226.us-west-2.compute.amazonaws.com. (107)
	0x0000:  4500 0087 5b02 0000 7f11 a796 0afa fa0c
	0x0010:  c0a8 731e 0035 b2d3 0073 40cc 73f4 8180
	0x0020:  0001 0001 0000 0000 0332 3236 0237 3003
	0x0030:  3231 3102 3334 0769 6e2d 6164 6472 0461
	0x0040:  7270 6100 000c 0001 c00c 000c 0001 0000
	0x0050:  012c 0033 1165 6332 2d33 342d 3231 312d
	0x0060:  3730 2d32 3236 0975 732d 7765 7374 2d32
	0x0070:  0763 6f6d 7075 7465 0961 6d61 7a6f 6e61
	0x0080:  7773 0363 6f6d 00
11:42:13.780686 IP BP-Linux8.44425 > ns1.lan.rt.domain: 2526+ PTR? 122.114.230.54.in-addr.arpa. (45)
	0x0000:  4500 0049 886c 4000 4011 796a c0a8 731e
	0x0010:  0afa fa0c ad89 0035 0035 3914 09de 0100
	0x0020:  0001 0000 0000 0000 0331 3232 0331 3134
	0x0030:  0332 3330 0235 3407 696e 2d61 6464 7204
	0x0040:  6172 7061 0000 0c00 01
11:42:13.807799 IP ns1.lan.rt.domain > BP-Linux8.44425: 2526 1/0/0 PTR server-54-230-114-122.mrs52.r.cloudfront.net. (103)
	0x0000:  4500 0083 5b03 0000 7f11 a799 0afa fa0c
	0x0010:  c0a8 731e 0035 ad89 006f 1e2f 09de 8180
	0x0020:  0001 0001 0000 0000 0331 3232 0331 3134
	0x0030:  0332 3330 0235 3407 696e 2d61 6464 7204
	0x0040:  6172 7061 0000 0c00 01c0 0c00 0c00 0100
	0x0050:  0143 2600 2e15 7365 7276 6572 2d35 342d
	0x0060:  3233 302d 3131 342d 3132 3205 6d72 7335
	0x0070:  3201 720a 636c 6f75 6466 726f 6e74 036e
	0x0080:  6574 00
11:42:14.688755 IP BP-Linux8 > 192.168.115.1: ICMP echo request, id 27625, seq 3, length 64
	0x0000:  4500 0054 257f 4000 4001 adb9 c0a8 731e
	0x0010:  c0a8 7301 0800 6a2b 6be9 0003 0601 c361
	0x0020:  6382 0a00 0809 0a0b 0c0d 0e0f 1011 1213
	0x0030:  1415 1617 1819 1a1b 1c1d 1e1f 2021 2223
	0x0040:  2425 2627 2829 2a2b 2c2d 2e2f 3031 3233
	0x0050:  3435 3637
11:42:14.688879 IP 192.168.115.1 > BP-Linux8: ICMP echo reply, id 27625, seq 3, length 64
	0x0000:  4500 0054 0000 4000 4001 d338 c0a8 7301
	0x0010:  c0a8 731e 0000 722b 6be9 0003 0601 c361
	0x0020:  6382 0a00 0809 0a0b 0c0d 0e0f 1011 1213
	0x0030:  1415 1617 1819 1a1b 1c1d 1e1f 2021 2223
	0x0040:  2425 2627 2829 2a2b 2c2d 2e2f 3031 3233
	0x0050:  3435 3637
11:42:14.688957 IP BP-Linux8.ssh > 192.168.190.130.50245: Flags [P.], seq 1389:1489, ack 160, win 291, options [nop,nop,TS val 102919743 ecr 377962094], length 100
	0x0000:  4512 0098 0ed1 4000 4006 788b c0a8 731e
	0x0010:  c0a8 be82 0016 c445 6e57 9948 5f79 f5f2
	0x0020:  8018 0123 b37c 0000 0101 080a 0622 6e3f
	0x0030:  1687 3e6e 5262 8d7d 34d2 1d19 47f5 2005
	0x0040:  a0bc 756a 78c4 9ec0 9228 7697 13ca 414e
	0x0050:  a916 77dd c36c 5783 d1af 39f0 1ae9 a66c
	0x0060:  a25c 3aeb ba6f 85b0 9259 a0d7 ba80 ffe8
	0x0070:  45a5 a1a0 cea0 d639 92c5 3d14 3998 24b1
	0x0080:  282e 45a4 3894 e9e5 67f5 dfbd 0fa6 23fa
	0x0090:  0993 a628 d519 ee9f
11:42:14.709442 IP 192.168.190.130.50245 > BP-Linux8.ssh: Flags [.], ack 1489, win 2046, options [nop,nop,TS val 377963092 ecr 102919743], length 0
	0x0000:  4548 0034 0000 4000 3f06 888a c0a8 be82
	0x0010:  c0a8 731e c445 0016 5f79 f5f2 6e57 99ac
	0x0020:  8010 07fe ccc4 0000 0101 080a 1687 4254
	0x0030:  0622 6e3f
11:42:15.688755 IP BP-Linux8 > 192.168.115.1: ICMP echo request, id 27625, seq 4, length 64
	0x0000:  4500 0054 25d1 4000 4001 ad67 c0a8 731e
	0x0010:  c0a8 7301 0800 692a 6be9 0004 0701 c361
	0x0020:  6382 0a00 0809 0a0b 0c0d 0e0f 1011 1213
	0x0030:  1415 1617 1819 1a1b 1c1d 1e1f 2021 2223
	0x0040:  2425 2627 2829 2a2b 2c2d 2e2f 3031 3233
	0x0050:  3435 3637
11:42:15.688879 IP 192.168.115.1 > BP-Linux8: ICMP echo reply, id 27625, seq 4, length 64
	0x0000:  4500 0054 0000 4000 4001 d338 c0a8 7301
	0x0010:  c0a8 731e 0000 712a 6be9 0004 0701 c361
	0x0020:  6382 0a00 0809 0a0b 0c0d 0e0f 1011 1213
	0x0030:  1415 1617 1819 1a1b 1c1d 1e1f 2021 2223
	0x0040:  2425 2627 2829 2a2b 2c2d 2e2f 3031 3233
	0x0050:  3435 3637
11:42:15.688951 IP BP-Linux8.ssh > 192.168.190.130.50245: Flags [P.], seq 1489:1589, ack 160, win 291, options [nop,nop,TS val 102919993 ecr 377963092], length 100
	0x0000:  4512 0098 0ed2 4000 4006 788a c0a8 731e
	0x0010:  c0a8 be82 0016 c445 6e57 99ac 5f79 f5f2
	0x0020:  8018 0123 b37c 0000 0101 080a 0622 6f39
	0x0030:  1687 4254 c896 43e3 2d7e 23df d893 ad6b
	0x0040:  dcbe 0d3d 5eef 6d3d 2255 8e50 fce1 631f
	0x0050:  1e2d 2191 1480 c595 9f70 9a31 0126 dc61
	0x0060:  242b 6bd5 707e 96da d7d7 d99a 217c a2c0
	0x0070:  5d9a da65 f6b0 a1d7 20ec f52f 5cc4 9963
	0x0080:  1a92 af91 d9e5 8c5b e21c 9eae 1171 f759
	0x0090:  6402 88fe 80a5 2af8
11:42:15.709422 IP 192.168.190.130.50245 > BP-Linux8.ssh: Flags [.], ack 1589, win 2046, options [nop,nop,TS val 377964090 ecr 102919993], length 0
	0x0000:  4548 0034 0000 4000 3f06 888a c0a8 be82
	0x0010:  c0a8 731e c445 0016 5f79 f5f2 6e57 9a10
	0x0020:  8010 07fe c780 0000 0101 080a 1687 463a
	0x0030:  0622 6f39
11:42:16.688765 IP BP-Linux8 > 192.168.115.1: ICMP echo request, id 27625, seq 5, length 64
	0x0000:  4500 0054 2607 4000 4001 ad31 c0a8 731e
	0x0010:  c0a8 7301 0800 6029 6be9 0005 0801 c361
	0x0020:  6b82 0a00 0809 0a0b 0c0d 0e0f 1011 1213
	0x0030:  1415 1617 1819 1a1b 1c1d 1e1f 2021 2223
	0x0040:  2425 2627 2829 2a2b 2c2d 2e2f 3031 3233
	0x0050:  3435 3637
11:42:16.688893 IP 192.168.115.1 > BP-Linux8: ICMP echo reply, id 27625, seq 5, length 64
	0x0000:  4500 0054 0000 4000 4001 d338 c0a8 7301
	0x0010:  c0a8 731e 0000 6829 6be9 0005 0801 c361
	0x0020:  6b82 0a00 0809 0a0b 0c0d 0e0f 1011 1213
	0x0030:  1415 1617 1819 1a1b 1c1d 1e1f 2021 2223
	0x0040:  2425 2627 2829 2a2b 2c2d 2e2f 3031 3233
	0x0050:  3435 3637
11:42:16.688978 IP BP-Linux8.ssh > 192.168.190.130.50245: Flags [P.], seq 1589:1689, ack 160, win 291, options [nop,nop,TS val 102920243 ecr 377964090], length 100
	0x0000:  4512 0098 0ed3 4000 4006 7889 c0a8 731e
	0x0010:  c0a8 be82 0016 c445 6e57 9a10 5f79 f5f2
	0x0020:  8018 0123 b37c 0000 0101 080a 0622 7033
	0x0030:  1687 463a 34b6 a96a 6e2d b157 73e4 d6ff
	0x0040:  7bc6 01e2 96b5 24c8 88b5 2b3d 135d 2a03
	0x0050:  e004 cce9 6373 5e28 5620 e06e 5fc4 d613
	0x0060:  178c e8d0 b0da 937e 0555 f7fa f70b b242
	0x0070:  c4f9 1ee7 1037 239c cec3 e2d9 3674 8f79
	0x0080:  f066 51b5 a393 2f34 2d2c f252 7d19 32fd
	0x0090:  9065 6f54 3245 7f3a
11:42:16.709308 IP 192.168.190.130.50245 > BP-Linux8.ssh: Flags [.], ack 1689, win 2046, options [nop,nop,TS val 377965089 ecr 102920243], length 0
	0x0000:  4548 0034 0000 4000 3f06 888a c0a8 be82
	0x0010:  c0a8 731e c445 0016 5f79 f5f2 6e57 9a74
	0x0020:  8010 07fe c23b 0000 0101 080a 1687 4a21
	0x0030:  0622 7033
11:42:17.688754 IP BP-Linux8 > 192.168.115.1: ICMP echo request, id 27625, seq 6, length 64
	0x0000:  4500 0054 263d 4000 4001 acfb c0a8 731e
	0x0010:  c0a8 7301 0800 6928 6be9 0006 0901 c361
	0x0020:  6182 0a00 0809 0a0b 0c0d 0e0f 1011 1213
	0x0030:  1415 1617 1819 1a1b 1c1d 1e1f 2021 2223
	0x0040:  2425 2627 2829 2a2b 2c2d 2e2f 3031 3233
	0x0050:  3435 3637
11:42:17.688874 IP 192.168.115.1 > BP-Linux8: ICMP echo reply, id 27625, seq 6, length 64
	0x0000:  4500 0054 0000 4000 4001 d338 c0a8 7301
	0x0010:  c0a8 731e 0000 7128 6be9 0006 0901 c361
	0x0020:  6182 0a00 0809 0a0b 0c0d 0e0f 1011 1213
	0x0030:  1415 1617 1819 1a1b 1c1d 1e1f 2021 2223
	0x0040:  2425 2627 2829 2a2b 2c2d 2e2f 3031 3233
	0x0050:  3435 3637
11:42:17.688952 IP BP-Linux8.ssh > 192.168.190.130.50245: Flags [P.], seq 1689:1789, ack 160, win 291, options [nop,nop,TS val 102920493 ecr 377965089], length 100
	0x0000:  4512 0098 0ed4 4000 4006 7888 c0a8 731e
	0x0010:  c0a8 be82 0016 c445 6e57 9a74 5f79 f5f2
	0x0020:  8018 0123 b37c 0000 0101 080a 0622 712d
	0x0030:  1687 4a21 1144 8a01 1c60 1556 8eee 2fe5
	0x0040:  efdc 395c 9fb2 35cc 6df8 6d00 17e0 d5c1
	0x0050:  5dd9 2169 b2a6 7c07 2424 bb61 ac08 075c
	0x0060:  975c bcee 96c6 c9e4 8f00 d780 84dd 1d1c
	0x0070:  7a84 9410 31b2 ce02 cc0f ddeb 76ae 356c
	0x0080:  1dbe 253a 13ce 8ff9 a75e fe99 f606 28be
	0x0090:  1572 e0d3 b147 5db7
11:42:17.709415 IP 192.168.190.130.50245 > BP-Linux8.ssh: Flags [.], ack 1789, win 2046, options [nop,nop,TS val 377966088 ecr 102920493], length 0
	0x0000:  4548 0034 0000 4000 3f06 888a c0a8 be82
	0x0010:  c0a8 731e c445 0016 5f79 f5f2 6e57 9ad8
	0x0020:  8010 07fe bcf6 0000 0101 080a 1687 4e08
	0x0030:  0622 712d
11:42:18.180745 IP BP-Linux8.37231 > par21s05-in-f131.1e100.net.http: Flags [.], ack 1, win 294, options [nop,nop,TS val 102920616 ecr 607602434], length 0
	0x0000:  4500 0034 5ad2 4000 4006 076d c0a8 731e
	0x0010:  d83a cc83 916f 0050 5f6f 76f9 af47 dcb4
	0x0020:  8010 0126 d8ab 0000 0101 080a 0622 71a8
	0x0030:  2437 4702
11:42:18.192458 IP par21s05-in-f131.1e100.net.http > BP-Linux8.37231: Flags [.], ack 1, win 282, options [nop,nop,TS val 607612450 ecr 102908100], length 0
	0x0000:  4500 0034 e35b 0000 7706 87e3 d83a cc83
	0x0010:  c0a8 731e 0050 916f af47 dcb4 5f6f 76fa
	0x0020:  8010 011a cfb8 0000 0101 080a 2437 6e22
	0x0030:  0622 40c4
11:42:18.725309 IP BP-Linux8 > 192.168.115.1: ICMP echo request, id 27625, seq 7, length 64
	0x0000:  4500 0054 2661 4000 4001 acd7 c0a8 731e
	0x0010:  c0a8 7301 0800 9c98 6be9 0007 0a01 c361
	0x0020:  2c11 0b00 0809 0a0b 0c0d 0e0f 1011 1213
	0x0030:  1415 1617 1819 1a1b 1c1d 1e1f 2021 2223
	0x0040:  2425 2627 2829 2a2b 2c2d 2e2f 3031 3233
	0x0050:  3435 3637
11:42:18.725433 IP 192.168.115.1 > BP-Linux8: ICMP echo reply, id 27625, seq 7, length 64
	0x0000:  4500 0054 0000 4000 4001 d338 c0a8 7301
	0x0010:  c0a8 731e 0000 a498 6be9 0007 0a01 c361
	0x0020:  2c11 0b00 0809 0a0b 0c0d 0e0f 1011 1213
	0x0030:  1415 1617 1819 1a1b 1c1d 1e1f 2021 2223
	0x0040:  2425 2627 2829 2a2b 2c2d 2e2f 3031 3233
	0x0050:  3435 3637
11:42:18.726941 IP BP-Linux8.ssh > 192.168.190.130.50245: Flags [P.], seq 1789:1889, ack 160, win 291, options [nop,nop,TS val 102920752 ecr 377966088], length 100
	0x0000:  4512 0098 0ed5 4000 4006 7887 c0a8 731e
	0x0010:  c0a8 be82 0016 c445 6e57 9ad8 5f79 f5f2
	0x0020:  8018 0123 b37c 0000 0101 080a 0622 7230
	0x0030:  1687 4e08 be94 8a07 639f 8ffb 7467 0d01
	0x0040:  2b20 13ba 7013 bf22 8a60 0ebe cb31 9e13
	0x0050:  9fa8 7728 407d 3621 3d7e ac50 bb39 23cb
	0x0060:  8ada 59a7 de50 70f4 f291 9039 8f4f 73bd
	0x0070:  7918 529c 4bff fa6f 90d6 d4b7 8067 c41f
	0x0080:  be56 b288 291b 8748 554d 2d3a 8fa4 528c
	0x0090:  a48b bc34 e1b6 9942
11:42:18.745319 IP 192.168.190.130.50245 > BP-Linux8.ssh: Flags [.], ack 1889, win 2046, options [nop,nop,TS val 377967125 ecr 102920752], length 0
	0x0000:  4548 0034 0000 4000 3f06 888a c0a8 be82
	0x0010:  c0a8 731e c445 0016 5f79 f5f2 6e57 9b3c
	0x0020:  8010 07fe b782 0000 0101 080a 1687 5215
	0x0030:  0622 7230
11:42:19.524740 IP BP-Linux8.43717 > 82.221.107.34.bc.googleusercontent.com.http: Flags [.], ack 221, win 245, options [nop,nop,TS val 102920952 ecr 4121913807], length 0
	0x0000:  4500 0034 2ae2 4000 4006 dc5d c0a8 731e
	0x0010:  226b dd52 aac5 0050 ffe6 0694 6dae 1d6c
	0x0020:  8010 00f5 33ab 0000 0101 080a 0622 72f8
	0x0030:  f5af 69cf
11:42:19.536654 IP 82.221.107.34.bc.googleusercontent.com.http > BP-Linux8.43717: Flags [.], ack 286, win 265, options [nop,nop,TS val 4121923830 ecr 102918449], length 0
	0x0000:  4500 0034 070a 0000 7706 0936 226b dd52
	0x0010:  c0a8 731e 0050 aac5 6dae 1d6c ffe6 0695
	0x0020:  8010 0109 0f8a 0000 0101 080a f5af 90f6
	0x0030:  0622 6931
11:42:19.726414 IP BP-Linux8 > 192.168.115.1: ICMP echo request, id 27625, seq 8, length 64
	0x0000:  4500 0054 268e 4000 4001 acaa c0a8 731e
	0x0010:  c0a8 7301 0800 4993 6be9 0008 0b01 c361
	0x0020:  7e15 0b00 0809 0a0b 0c0d 0e0f 1011 1213
	0x0030:  1415 1617 1819 1a1b 1c1d 1e1f 2021 2223
	0x0040:  2425 2627 2829 2a2b 2c2d 2e2f 3031 3233
	0x0050:  3435 3637
11:42:19.726529 IP 192.168.115.1 > BP-Linux8: ICMP echo reply, id 27625, seq 8, length 64
	0x0000:  4500 0054 0000 4000 4001 d338 c0a8 7301
	0x0010:  c0a8 731e 0000 5193 6be9 0008 0b01 c361
	0x0020:  7e15 0b00 0809 0a0b 0c0d 0e0f 1011 1213
	0x0030:  1415 1617 1819 1a1b 1c1d 1e1f 2021 2223
	0x0040:  2425 2627 2829 2a2b 2c2d 2e2f 3031 3233
	0x0050:  3435 3637
11:42:19.726599 IP BP-Linux8.ssh > 192.168.190.130.50245: Flags [P.], seq 1889:1989, ack 160, win 291, options [nop,nop,TS val 102921002 ecr 377967125], length 100
	0x0000:  4512 0098 0ed6 4000 4006 7886 c0a8 731e
	0x0010:  c0a8 be82 0016 c445 6e57 9b3c 5f79 f5f2
	0x0020:  8018 0123 b37c 0000 0101 080a 0622 732a
	0x0030:  1687 5215 6bf4 ad8c 9857 3824 21df 6b7b
	0x0040:  4105 6e40 344a 10d9 d212 204e 84e6 1661
	0x0050:  2a15 d1fc 85b6 06f4 8264 a73a 4a6b 0b02
	0x0060:  c461 e0df 8c77 99d6 54dc ac70 f6e6 f2ff
	0x0070:  046a f793 80f4 4bbf 9616 9c53 fa82 8393
	0x0080:  cfa0 de4b ea6c f809 e21d 8d52 1efe a555
	0x0090:  e382 f988 fd23 e694
11:42:19.745328 IP 192.168.190.130.50245 > BP-Linux8.ssh: Flags [.], ack 1989, win 2046, options [nop,nop,TS val 377968123 ecr 102921002], length 0
	0x0000:  4548 0034 0000 4000 3f06 888a c0a8 be82
	0x0010:  c0a8 731e c445 0016 5f79 f5f2 6e57 9ba0
	0x0020:  8010 07fe b23e 0000 0101 080a 1687 55fb
	0x0030:  0622 732a
11:42:20.388750 IP BP-Linux8.34621 > 93.184.220.29.http: Flags [.], ack 800, win 254, options [nop,nop,TS val 102921168 ecr 3569168733], length 0
	0x0000:  4500 0034 0146 4000 4006 cbe1 c0a8 731e
	0x0010:  5db8 dc1d 873d 0050 a2e0 3507 04c2 4e59
	0x0020:  8010 00fe 6dc3 0000 0101 080a 0622 73d0
	0x0030:  d4bd 315d
11:42:20.396013 IP 93.184.220.29.http > BP-Linux8.34621: Flags [.], ack 429, win 133, options [nop,nop,TS val 3569178741 ecr 102918667], length 0
	0x0000:  4500 0034 8e84 0000 3806 86a3 5db8 dc1d
	0x0010:  c0a8 731e 0050 873d 04c2 4e59 a2e0 3508
	0x0020:  8010 0085 b8a9 0000 0101 080a d4bd 5875
	0x0030:  0622 6a0b
11:42:20.725412 IP BP-Linux8 > 192.168.115.1: ICMP echo request, id 27625, seq 9, length 64
	0x0000:  4500 0054 26c6 4000 4001 ac72 c0a8 731e
	0x0010:  c0a8 7301 0800 3096 6be9 0009 0c01 c361
	0x0020:  9611 0b00 0809 0a0b 0c0d 0e0f 1011 1213
	0x0030:  1415 1617 1819 1a1b 1c1d 1e1f 2021 2223
	0x0040:  2425 2627 2829 2a2b 2c2d 2e2f 3031 3233
	0x0050:  3435 3637
11:42:20.725525 IP 192.168.115.1 > BP-Linux8: ICMP echo reply, id 27625, seq 9, length 64
	0x0000:  4500 0054 0000 4000 4001 d338 c0a8 7301
	0x0010:  c0a8 731e 0000 3896 6be9 0009 0c01 c361
	0x0020:  9611 0b00 0809 0a0b 0c0d 0e0f 1011 1213
	0x0030:  1415 1617 1819 1a1b 1c1d 1e1f 2021 2223
	0x0040:  2425 2627 2829 2a2b 2c2d 2e2f 3031 3233
	0x0050:  3435 3637
11:42:20.725665 IP BP-Linux8.ssh > 192.168.190.130.50245: Flags [P.], seq 1989:2089, ack 160, win 291, options [nop,nop,TS val 102921252 ecr 377968123], length 100
	0x0000:  4512 0098 0ed7 4000 4006 7885 c0a8 731e
	0x0010:  c0a8 be82 0016 c445 6e57 9ba0 5f79 f5f2
	0x0020:  8018 0123 b37c 0000 0101 080a 0622 7424
	0x0030:  1687 55fb 5dd9 506c 752d 2387 0c80 dcc2
	0x0040:  9448 52cf 8d52 8565 5f7e 9d3d e51e afa2
	0x0050:  2827 b61a af68 9c15 30ca 9395 a1e4 d220
	0x0060:  8e25 678a 4734 6646 ce45 3d96 9237 ee60
	0x0070:  aea8 9c7d 4773 3363 b5be ed36 c437 a290
	0x0080:  94f0 4e40 4638 0385 6c91 4313 46de 8823
	0x0090:  2c43 a868 ce16 37d7
11:42:20.745304 IP 192.168.190.130.50245 > BP-Linux8.ssh: Flags [.], ack 2089, win 2046, options [nop,nop,TS val 377969122 ecr 102921252], length 0
	0x0000:  4548 0034 0000 4000 3f06 888a c0a8 be82
	0x0010:  c0a8 731e c445 0016 5f79 f5f2 6e57 9c04
	0x0020:  8010 07fe acf9 0000 0101 080a 1687 59e2
	0x0030:  0622 7424
11:42:21.252747 IP BP-Linux8.42612 > server-54-230-114-7.mrs52.r.cloudfront.net.https: Flags [.], ack 1, win 341, options [nop,nop,TS val 102921384 ecr 4110818164], length 0
	0x0000:  4500 0034 2543 4000 4006 38cd c0a8 731e
	0x0010:  36e6 7207 a674 01bb eae4 1802 e3da 259c
	0x0020:  8010 0155 dcda 0000 0101 080a 0622 74a8
	0x0030:  f506 1b74
11:42:21.259131 IP server-54-230-114-7.mrs52.r.cloudfront.net.https > BP-Linux8.42612: Flags [.], ack 1, win 7, options [nop,nop,TS val 4110828181 ecr 102903856], length 0
	0x0000:  4500 0034 04ed 0000 eb06 ee22 36e6 7207
	0x0010:  c0a8 731e 01bb a674 e3da 259c eae4 1803
	0x0020:  8010 0007 7785 0000 0101 080a f506 4295
	0x0030:  0622 3030
11:42:21.724747 IP BP-Linux8 > 192.168.115.1: ICMP echo request, id 27625, seq 10, length 64
	0x0000:  4500 0054 2744 4000 4001 abf4 c0a8 731e
	0x0010:  c0a8 7301 0800 c897 6be9 000a 0d01 c361
	0x0020:  fd0e 0b00 0809 0a0b 0c0d 0e0f 1011 1213
	0x0030:  1415 1617 1819 1a1b 1c1d 1e1f 2021 2223
	0x0040:  2425 2627 2829 2a2b 2c2d 2e2f 3031 3233
	0x0050:  3435 3637
11:42:21.724869 IP 192.168.115.1 > BP-Linux8: ICMP echo reply, id 27625, seq 10, length 64
	0x0000:  4500 0054 0000 4000 4001 d338 c0a8 7301
	0x0010:  c0a8 731e 0000 d097 6be9 000a 0d01 c361
	0x0020:  fd0e 0b00 0809 0a0b 0c0d 0e0f 1011 1213
	0x0030:  1415 1617 1819 1a1b 1c1d 1e1f 2021 2223
	0x0040:  2425 2627 2829 2a2b 2c2d 2e2f 3031 3233
	0x0050:  3435 3637
11:42:21.724950 IP BP-Linux8.ssh > 192.168.190.130.50245: Flags [P.], seq 2089:2189, ack 160, win 291, options [nop,nop,TS val 102921502 ecr 377969122], length 100
	0x0000:  4512 0098 0ed8 4000 4006 7884 c0a8 731e
	0x0010:  c0a8 be82 0016 c445 6e57 9c04 5f79 f5f2
	0x0020:  8018 0123 b37c 0000 0101 080a 0622 751e
	0x0030:  1687 59e2 1974 a491 6bef 7628 1e02 eccf
	0x0040:  1757 5b81 0524 6448 979b a03e a43f 3a66
	0x0050:  554f c32a 7791 b33c 168d 0bfd 96d2 0646
	0x0060:  1f1e 22eb 0b96 f883 ecc1 fcb8 e0cc 8204
	0x0070:  7975 ac4c 64a1 d13b f6de 519d d776 2328
	0x0080:  4565 a44d 332d 12d5 55a2 1299 903d 7d2d
	0x0090:  28e1 d877 1e5b d9af
11:42:21.745290 IP 192.168.190.130.50245 > BP-Linux8.ssh: Flags [.], ack 2189, win 2046, options [nop,nop,TS val 377970096 ecr 102921502], length 0
	0x0000:  4548 0034 0000 4000 3f06 888a c0a8 be82
	0x0010:  c0a8 731e c445 0016 5f79 f5f2 6e57 9c68
	0x0020:  8010 07fe a7cd 0000 0101 080a 1687 5db0
	0x0030:  0622 751e
11:42:22.301678 IP BP-Linux8.60493 > ns1.lan.rt.domain: 52447+ A? www.google.com. (32)
	0x0000:  4500 003c 8a49 4000 4011 779a c0a8 731e
	0x0010:  0afa fa0c ec4d 0035 0028 3907 ccdf 0100
	0x0020:  0001 0000 0000 0000 0377 7777 0667 6f6f
	0x0030:  676c 6503 636f 6d00 0001 0001
11:42:22.301694 IP BP-Linux8.60493 > ns1.lan.rt.domain: 58389+ AAAA? www.google.com. (32)
	0x0000:  4500 003c 8a4a 4000 4011 7799 c0a8 731e
	0x0010:  0afa fa0c ec4d 0035 0028 3907 e415 0100
	0x0020:  0001 0000 0000 0000 0377 7777 0667 6f6f
	0x0030:  676c 6503 636f 6d00 001c 0001
11:42:22.302602 IP ns1.lan.rt.domain > BP-Linux8.60493: 58389 1/0/0 AAAA 2a00:1450:4007:811::2004 (60)
	0x0000:  4500 0058 5b04 0000 7f11 a7c3 0afa fa0c
	0x0010:  c0a8 731e 0035 ec4d 0044 7ffb e415 8180
	0x0020:  0001 0001 0000 0000 0377 7777 0667 6f6f
	0x0030:  676c 6503 636f 6d00 001c 0001 c00c 001c
	0x0040:  0001 0000 001a 0010 2a00 1450 4007 0811
	0x0050:  0000 0000 0000 2004
11:42:22.304574 IP BP-Linux8.41767 > par21s04-in-f4.1e100.net.https: Flags [P.], seq 3740838800:3740839048, ack 120638078, win 2946, options [nop,nop,TS val 102921646 ecr 2380190838], length 248
	0x0000:  4500 012c 4fbe 4000 4006 0868 c0a8 731e
	0x0010:  d83a d5a4 a327 01bb def8 ab90 0730 ca7e
	0x0020:  8018 0b82 e2c4 0000 0101 080a 0622 75ae
	0x0030:  8dde d476 1703 0300 f300 0000 0000 0000
	0x0040:  488b 1a4b 8451 86c5 5934 9dbc f5e3 cc51
	0x0050:  3179 f52c 66a2 4469 ebed 558e d326 c713
	0x0060:  6954 5add 2692 81d0 d473 339f 7de1 d6d6
	0x0070:  218b bbde 55ed 3d60 2d9f 5e8f e2ac e4ef
	0x0080:  9b1e 7dfd abfd 2600 22b3 8e2a 6164 111a
	0x0090:  05b9 d00a de17 c159 0bb5 2ce1 57a0 4d28
	0x00a0:  3e04 6d26 ff9b 09f2 78db 0926 0c55 ca8d
	0x00b0:  6609 8826 b447 95e0 a23d acbf 494c 9897
	0x00c0:  db1c ff23 d4da 8d15 25f8 70d1 20d3 11e5
	0x00d0:  f3b1 ddb7 833f 68f2 eecc 7a74 9afa f222
	0x00e0:  988d 17e4 e3eb bbd8 80f7 8184 f0fb db03
	0x00f0:  f770 85ed f2e2 f904 28a6 843c c5fc f91d
	0x0100:  de3b 6667 0ae2 f530 3eff 8f27 c79a 0ed4
	0x0110:  a85b d0a2 7f19 f55e 711d 5f49 86f5 f81e
	0x0120:  6d09 1690 b455 dd96 6af4 04ff
11:42:22.306995 IP ns1.lan.rt.domain > BP-Linux8.60493: 52447 1/0/0 A 216.58.213.164 (48)
	0x0000:  4500 004c 5b05 0000 7f11 a7ce 0afa fa0c
	0x0010:  c0a8 731e 0035 ec4d 0038 8f20 ccdf 8180
	0x0020:  0001 0001 0000 0000 0377 7777 0667 6f6f
	0x0030:  676c 6503 636f 6d00 0001 0001 c00c 0001
	0x0040:  0001 0000 0112 0004 d83a d5a4
11:42:22.316453 IP par21s04-in-f4.1e100.net.https > BP-Linux8.41767: Flags [.], ack 248, win 377, options [nop,nop,TS val 2380245261 ecr 102921646], length 0
	0x0000:  4500 0034 2ae9 0000 7706 3735 d83a d5a4
	0x0010:  c0a8 731e 01bb a327 0730 ca7e def8 ac88
	0x0020:  8010 0179 decd 0000 0101 080a 8ddf a90d
	0x0030:  0622 75ae
11:42:22.316927 IP BP-Linux8.41767 > par21s04-in-f4.1e100.net.https: Flags [P.], seq 248:1079, ack 1, win 2946, options [nop,nop,TS val 102921650 ecr 2380245261], length 831
	0x0000:  4500 0373 4fbf 4000 4006 0620 c0a8 731e
	0x0010:  d83a d5a4 a327 01bb def8 ac88 0730 ca7e
	0x0020:  8018 0b82 e50b 0000 0101 080a 0622 75b2
	0x0030:  8ddf a90d 1703 0303 3a00 0000 0000 0000
	0x0040:  490b 74c9 2ecb f11f 1e02 87ab 0aff a204
	0x0050:  59dd 2236 191f 589f e324 5535 53b2 1830
	0x0060:  8bb0 2037 ad08 999b 5fd5 4ead c95a d38c
	0x0070:  daaf 8550 977d 127c 2e11 81d7 6f83 c513
	0x0080:  a44e 3141 b147 945d a7af 691a 50ae 887f
	0x0090:  582e bd74 9fda 77bb 5c76 f886 9b5b afc6
	0x00a0:  f930 0a2a 43c9 aab8 39f7 fef6 8bf5 b64d
	0x00b0:  8f9a d133 66fd d2ec 409b 281f 2acb 8041
	0x00c0:  cdf5 6518 da56 c244 f4e3 7bad 8df1 db8f
	0x00d0:  31fa ff35 9009 635a be24 6dbf b751 7a11
	0x00e0:  b57f e871 6ce2 e164 366c 2eda 0a9c 7b65
	0x00f0:  baa3 518c 6b60 1c84 86f3 04e8 40a1 e639
	0x0100:  3def 0d91 a55f fba7 6e29 6d65 cdb7 10c0
	0x0110:  41f0 2934 5a63 e264 4c60 611f 98e4 ca2e
	0x0120:  becf 0fb3 4310 b477 baed ea4e a723 e5bd
	0x0130:  14eb 421f 4c4e b51c c79f f8b2 9890 5341
	0x0140:  9f1a 1231 b5b2 ee94 68c5 8e1f 516e 5e33
	0x0150:  fd74 473d cfde b20e 114d c989 6a26 49a5
	0x0160:  ac06 9de3 462b b440 5bd1 df0d fcaf f6b4
	0x0170:  a6d2 50c1 c534 7e97 6402 4a5e d1ec ee5d
	0x0180:  764f 1c3f 1ef6 1f8e 4f19 2dcc 29e3 49ae
	0x0190:  35ff 99e8 a0a6 bd9d 09fe 8226 f845 8858
	0x01a0:  f768 eb76 0632 9b37 6323 46f7 147e 5484
	0x01b0:  fa6d 65cc 8423 27e8 dd0a a472 48d1 0b01
	0x01c0:  639c 87a3 46ab 75da 6212 68a7 6408 e39b
	0x01d0:  3220 8e28 1118 d648 7184 1077 0d4a 94c1
	0x01e0:  de66 3787 2484 8cff 5682 06cf ebe4 c6a6
	0x01f0:  2d1f fe75 b0e6 77d4 a36e dd93 757c b239
	0x0200:  1ccb 318a 403f aaa2 0d53 c10e 23e4 c04e
	0x0210:  a490 9bd6 3f4c 2168 9e75 949b 59db d8c8
	0x0220:  3fc8 b272 e546 a831 94b8 bcae ab2e 9a51
	0x0230:  eac2 99f4 cbb8 7adb 24ff f90b f63c cce5
	0x0240:  8da4 e041 625e 48a6 a87b cd8d 8fc2 20cc
	0x0250:  ea62 44ca 27be 034b 55d2 6ad8 5f8c 630d
	0x0260:  6c24 551f 38b2 d4d7 4cbb 2c26 16ba b60f
	0x0270:  48ae 2356 d30c b205 2eee f4fb 52b9 22cc
	0x0280:  1823 aca8 8b9a 1f58 8143 d69b e49a 439d
	0x0290:  8bf7 6c1d 2354 f386 24de 10cf cffd 8083
	0x02a0:  883b 5f45 d614 03d6 d565 17ec b60c 7386
	0x02b0:  6ebd 11cb c326 af01 c70a 6f72 f839 05b4
	0x02c0:  8134 b985 f4e3 930e d590 11f6 345a 3ede
	0x02d0:  a1f7 04e0 4ff1 be2d ca79 1ece 0cf4 0e5a
	0x02e0:  6e53 7b5c a1f3 81e2 6d85 f77d 613a 70f7
	0x02f0:  ba79 18d0 022c 86dd 0c02 baed acc1 2a7b
	0x0300:  9fe5 c4d2 c5da 6667 71dc a879 8c94 4c98
	0x0310:  1c0e e535 2314 59cc e835 1cc4 4ede b43a
	0x0320:  681d 1bb1 0589 0843 8ede 5bf0 a3e1 c859
	0x0330:  790a ab4f 2934 a79d 2727 d341 96df ebd3
	0x0340:  d39c a973 5f87 47d0 8a6a 5ee2 a8f3 5e23
	0x0350:  75f4 477d 8ba2 c358 5b89 87bd f6e8 c783
	0x0360:  e2e7 a150 84dc 333d 50b0 baa4 0de0 c8ed
	0x0370:  eb92 52
11:42:22.317039 IP BP-Linux8.41767 > par21s04-in-f4.1e100.net.https: Flags [P.], seq 1079:1117, ack 1, win 2946, options [nop,nop,TS val 102921650 ecr 2380245261], length 38
	0x0000:  4500 005a 4fc0 4000 4006 0938 c0a8 731e
	0x0010:  d83a d5a4 a327 01bb def8 afc7 0730 ca7e
	0x0020:  8018 0b82 e1f2 0000 0101 080a 0622 75b2
	0x0030:  8ddf a90d 1703 0300 2100 0000 0000 0000
	0x0040:  4aa4 82fd 59d3 4c7c e0b8 6f45 a4db 569b
	0x0050:  9f57 3618 b510 0458 fb4e
11:42:22.328772 IP par21s04-in-f4.1e100.net.https > BP-Linux8.41767: Flags [.], ack 1079, win 388, options [nop,nop,TS val 2380245274 ecr 102921650], length 0
	0x0000:  4500 0034 2af5 0000 7706 3729 d83a d5a4
	0x0010:  c0a8 731e 01bb a327 0730 ca7e def8 afc7
	0x0020:  8010 0184 db72 0000 0101 080a 8ddf a91a
	0x0030:  0622 75b2
11:42:22.328889 IP par21s04-in-f4.1e100.net.https > BP-Linux8.41767: Flags [.], ack 1117, win 388, options [nop,nop,TS val 2380245274 ecr 102921650], length 0
	0x0000:  4500 0034 2af6 0000 7706 3728 d83a d5a4
	0x0010:  c0a8 731e 01bb a327 0730 ca7e def8 afed
	0x0020:  8010 0184 db4c 0000 0101 080a 8ddf a91a
	0x0030:  0622 75b2
11:42:06.681548 IP 190-0-175-100.gba.solunet.com.ar.2482 > 184.107.43.74.http: Flags [S], seq 29032482:29032602, win 512, length 120: HTTP
	0x0000:  4500 00a0 5a22 0000 4006 cf1b be00 af64
	0x0010:  b86b 2b4a 09b2 0050 01bb 0022 02a2 6a07
	0x0020:  5002 0200 2f13 0000 5858 5858 5858 5858
	0x0030:  5858 5858 5858 5858 5858 5858 5858 5858
	0x0040:  5858 5858 5858 5858 5858 5858 5858 5858
	0x0050:  5858 5858 5858 5858 5858 5858 5858 5858
	0x0060:  5858 5858 5858 5858 5858 5858 5858 5858
	0x0070:  5858 5858 5858 5858 5858 5858 5858 5858
	0x0080:  5858 5858 5858 5858 5858 5858 5858 5858
	0x0090:  5858 5858 5858 5858 5858 5858 5858 5858
11:42:06.681564 IP 190-0-175-100.gba.solunet.com.ar.2483 > 184.107.43.74.http: Flags [S], seq 2121432424:2121432544, win 512, length 120: HTTP
	0x0000:  4500 00a0 99f2 0000 4006 8f4b be00 af64
	0x0010:  b86b 2b4a 09b3 0050 7e72 7d68 1edd 98a9
	0x0020:  5002 0200 ea36 0000 5858 5858 5858 5858
	0x0030:  5858 5858 5858 5858 5858 5858 5858 5858
	0x0040:  5858 5858 5858 5858 5858 5858 5858 5858
	0x0050:  5858 5858 5858 5858 5858 5858 5858 5858
	0x0060:  5858 5858 5858 5858 5858 5858 5858 5858
	0x0070:  5858 5858 5858 5858 5858 5858 5858 5858
	0x0080:  5858 5858 5858 5858 5858 5858 5858 5858
	0x0090:  5858 5858 5858 5858 5858 5858 5858 5858
11:42:06.681581 IP 190-0-175-100.gba.solunet.com.ar.2484 > 184.107.43.74.http: Flags [S], seq 266983944:266984064, win 512, length 120: HTTP
	0x0000:  4500 00a0 b0e5 0000 4006 7858 be00 af64
	0x0010:  b86b 2b4a 09b4 0050 0fe9 da08 306d 6f76
	0x0020:  5002 0200 13c2 0000 5858 5858 5858 5858
	0x0030:  5858 5858 5858 5858 5858 5858 5858 5858
	0x0040:  5858 5858 5858 5858 5858 5858 5858 5858
	0x0050:  5858 5858 5858 5858 5858 5858 5858 5858
	0x0060:  5858 5858 5858 5858 5858 5858 5858 5858
	0x0070:  5858 5858 5858 5858 5858 5858 5858 5858
	0x0080:  5858 5858 5858 5858 5858 5858 5858 5858
	0x0090:  5858 5858 5858 5858 5858 5858 5858 5858
11:42:06.681597 IP 190-0-175-100.gba.solunet.com.ar.2485 > 184.107.43.74.http: Flags [S], seq 780253659:780253779, win 512, length 120: HTTP
	0x0000:  4500 00a0 46e5 0000 4006 e258 be00 af64
	0x0010:  b86b 2b4a 09b5 0050 2e81 b9db 27dc 0054
	0x0020:  5002 0200 8d09 0000 5858 5858 5858 5858
	0x0030:  5858 5858 5858 5858 5858 5858 5858 5858
	0x0040:  5858 5858 5858 5858 5858 5858 5858 5858
	0x0050:  5858 5858 5858 5858 5858 5858 5858 5858
	0x0060:  5858 5858 5858 5858 5858 5858 5858 5858
	0x0070:  5858 5858 5858 5858 5858 5858 5858 5858
	0x0080:  5858 5858 5858 5858 5858 5858 5858 5858
	0x0090:  5858 5858 5858 5858 5858 5858 5858 5858
11:42:06.681614 IP 190-0-175-100.gba.solunet.com.ar.2486 > 184.107.43.74.http: Flags [S], seq 426927737:426927857, win 512, length 120: HTTP
	0x0000:  4500 00a0 d965 0000 4006 4fd8 be00 af64
	0x0010:  b86b 2b4a 09b6 0050 1972 6679 6015 46a3
	0x0020:  5002 0200 76f1 0000 5858 5858 5858 5858
	0x0030:  5858 5858 5858 5858 5858 5858 5858 5858
	0x0040:  5858 5858 5858 5858 5858 5858 5858 5858
	0x0050:  5858 5858 5858 5858 5858 5858 5858 5858
	0x0060:  5858 5858 5858 5858 5858 5858 5858 5858
	0x0070:  5858 5858 5858 5858 5858 5858 5858 5858
	0x0080:  5858 5858 5858 5858 5858 5858 5858 5858
	0x0090:  5858 5858 5858 5858 5858 5858 5858 5858
11:42:06.681630 IP 190-0-175-100.gba.solunet.com.ar.2487 > 184.107.43.74.http: Flags [S], seq 2059846495:2059846615, win 512, length 120: HTTP
	0x0000:  4500 00a0 92d5 0000 4006 9668 be00 af64
	0x0010:  b86b 2b4a 09b7 0050 7ac6 c35f 049d b838
	0x0020:  5002 0200 a298 0000 5858 5858 5858 5858
	0x0030:  5858 5858 5858 5858 5858 5858 5858 5858
	0x0040:  5858 5858 5858 5858 5858 5858 5858 5858
	0x0050:  5858 5858 5858 5858 5858 5858 5858 5858
	0x0060:  5858 5858 5858 5858 5858 5858 5858 5858
	0x0070:  5858 5858 5858 5858 5858 5858 5858 5858
	0x0080:  5858 5858 5858 5858 5858 5858 5858 5858
	0x0090:  5858 5858 5858 5858 5858 5858 5858 5858
11:42:06.681647 IP 190-0-175-100.gba.solunet.com.ar.2488 > 184.107.43.74.http: Flags [S], seq 485695892:485696012, win 512, length 120: HTTP
	0x0000:  4500 00a0 13ff 0000 4006 153f be00 af64
	0x0010:  b86b 2b4a 09b8 0050 1cf3 2194 44f2 116d
	0x0020:  5002 0200 08ad 0000 5858 5858 5858 5858
	0x0030:  5858 5858 5858 5858 5858 5858 5858 5858
	0x0040:  5858 5858 5858 5858 5858 5858 5858 5858
	0x0050:  5858 5858 5858 5858 5858 5858 5858 5858
	0x0060:  5858 5858 5858 5858 5858 5858 5858 5858
	0x0070:  5858 5858 5858 5858 5858 5858 5858 5858
	0x0080:  5858 5858 5858 5858 5858 5858 5858 5858
	0x0090:  5858 5858 5858 5858 5858 5858 5858 5858
11:42:06.681664 IP 190-0-175-100.gba.solunet.com.ar.2489 > 184.107.43.74.http: Flags [S], seq 1506899314:1506899434, win 512, length 120: HTTP
	0x0000:  4500 00a0 3516 0000 4006 f427 be00 af64
	0x0010:  b86b 2b4a 09b9 0050 59d1 7572 1a02 2cf3
	0x0020:  5002 0200 8759 0000 5858 5858 5858 5858
	0x0030:  5858 5858 5858 5858 5858 5858 5858 5858
	0x0040:  5858 5858 5858 5858 5858 5858 5858 5858
	0x0050:  5858 5858 5858 5858 5858 5858 5858 5858
	0x0060:  5858 5858 5858 5858 5858 5858 5858 5858
	0x0070:  5858 5858 5858 5858 5858 5858 5858 5858
	0x0080:  5858 5858 5858 5858 5858 5858 5858 5858
	0x0090:  5858 5858 5858 5858 5858 5858 5858 5858
11:42:06.681681 IP 190-0-175-100.gba.solunet.com.ar.2490 > 184.107.43.74.http: Flags [S], seq 1974670292:1974670412, win 512, length 120: HTTP
	0x0000:  4500 00a0 2918 0000 4006 0026 be00 af64
	0x0010:  b86b 2b4a 09ba 0050 75b3 13d4 7255 5d63
	0x0020:  5002 0200 4451 0000 5858 5858 5858 5858
	0x0030:  5858 5858 5858 5858 5858 5858 5858 5858
	0x0040:  5858 5858 5858 5858 5858 5858 5858 5858
	0x0050:  5858 5858 5858 5858 5858 5858 5858 5858
	0x0060:  5858 5858 5858 5858 5858 5858 5858 5858
	0x0070:  5858 5858 5858 5858 5858 5858 5858 5858
	0x0080:  5858 5858 5858 5858 5858 5858 5858 5858
	0x0090:  5858 5858 5858 5858 5858 5858 5858 5858
11:42:06.681697 IP 190-0-175-100.gba.solunet.com.ar.2491 > 184.107.43.74.http: Flags [S], seq 984948282:984948402, win 512, length 120: HTTP
	0x0000:  4500 00a0 6a05 0000 4006 bf38 be00 af64
	0x0010:  b86b 2b4a 09bb 0050 3ab5 1e3a 2272 f4d8
	0x0020:  5002 0200 2d56 0000 5858 5858 5858 5858
	0x0030:  5858 5858 5858 5858 5858 5858 5858 5858
	0x0040:  5858 5858 5858 5858 5858 5858 5858 5858
	0x0050:  5858 5858 5858 5858 5858 5858 5858 5858
	0x0060:  5858 5858 5858 5858 5858 5858 5858 5858
	0x0070:  5858 5858 5858 5858 5858 5858 5858 5858
	0x0080:  5858 5858 5858 5858 5858 5858 5858 5858
	0x0090:  5858 5858 5858 5858 5858 5858 5858 5858
11:42:06.681722 IP 190-0-175-100.gba.solunet.com.ar.2492 > 184.107.43.74.http: Flags [S], seq 2071134208:2071134328, win 512, length 120: HTTP
	0x0000:  4500 00a0 d40c 0000 4006 5531 be00 af64
	0x0010:  b86b 2b4a 09bc 0050 7b73 0000 242d f4fa
	0x0020:  5002 0200 08f4 0000 5858 5858 5858 5858
	0x0030:  5858 5858 5858 5858 5858 5858 5858 5858
	0x0040:  5858 5858 5858 5858 5858 5858 5858 5858
	0x0050:  5858 5858 5858 5858 5858 5858 5858 5858
	0x0060:  5858 5858 5858 5858 5858 5858 5858 5858
	0x0070:  5858 5858 5858 5858 5858 5858 5858 5858
	0x0080:  5858 5858 5858 5858 5858 5858 5858 5858
	0x0090:  5858 5858 5858 5858 5858 5858 5858 5858
11:42:06.681739 IP 190-0-175-100.gba.solunet.com.ar.2493 > 184.107.43.74.http: Flags [S], seq 582048290:582048410, win 512, length 120: HTTP
	0x0000:  4500 00a0 6cb5 0000 4006 bc88 be00 af64
	0x0010:  b86b 2b4a 09bd 0050 22b1 5a22 22a0 7262
	0x0020:  5002 0200 8bb8 0000 5858 5858 5858 5858
	0x0030:  5858 5858 5858 5858 5858 5858 5858 5858
	0x0040:  5858 5858 5858 5858 5858 5858 5858 5858
	0x0050:  5858 5858 5858 5858 5858 5858 5858 5858
	0x0060:  5858 5858 5858 5858 5858 5858 5858 5858
	0x0070:  5858 5858 5858 5858 5858 5858 5858 5858
	0x0080:  5858 5858 5858 5858 5858 5858 5858 5858
	0x0090:  5858 5858 5858 5858 5858 5858 5858 5858
11:42:06.681756 IP 190-0-175-100.gba.solunet.com.ar.2494 > 184.107.43.74.http: Flags [S], seq 1414722580:1414722700, win 512, length 120: HTTP
	0x0000:  4500 00a0 dc2b 0000 4006 4d12 be00 af64
	0x0010:  b86b 2b4a 09be 0050 5452 f414 328a 4c6a
	0x0020:  5002 0200 d631 0000 5858 5858 5858 5858
	0x0030:  5858 5858 5858 5858 5858 5858 5858 5858
	0x0040:  5858 5858 5858 5858 5858 5858 5858 5858
	0x0050:  5858 5858 5858 5858 5858 5858 5858 5858
	0x0060:  5858 5858 5858 5858 5858 5858 5858 5858
	0x0070:  5858 5858 5858 5858 5858 5858 5858 5858
	0x0080:  5858 5858 5858 5858 5858 5858 5858 5858
	0x0090:  5858 5858 5858 5858 5858 5858 5858 5858
11:42:06.681773 IP 190-0-175-100.gba.solunet.com.ar.2495 > 184.107.43.74.http: Flags [S], seq 1376167161:1376167281, win 512, length 120: HTTP
	0x0000:  4500 00a0 dc80 0000 4006 4cbd be00 af64
	0x0010:  b86b 2b4a 09bf 0050 5206 a4f9 610c 0646
	0x0020:  5002 0200 3f3a 0000 5858 5858 5858 5858
	0x0030:  5858 5858 5858 5858 5858 5858 5858 5858
	0x0040:  5858 5858 5858 5858 5858 5858 5858 5858
	0x0050:  5858 5858 5858 5858 5858 5858 5858 5858
	0x0060:  5858 5858 5858 5858 5858 5858 5858 5858
	0x0070:  5858 5858 5858 5858 5858 5858 5858 5858
	0x0080:  5858 5858 5858 5858 5858 5858 5858 5858
	0x0090:  5858 5858 5858 5858 5858 5858 5858 5858
11:42:06.681789 IP 190-0-175-100.gba.solunet.com.ar.2496 > 184.107.43.74.http: Flags [S], seq 793373662:793373782, win 512, length 120: HTTP
	0x0000:  4500 00a0 2323 0000 4006 061b be00 af64
	0x0010:  b86b 2b4a 09c0 0050 2f49 ebde 7a7e 6cbf
	0x0020:  5002 0200 9b25 0000 5858 5858 5858 5858
	0x0030:  5858 5858 5858 5858 5858 5858 5858 5858
	0x0040:  5858 5858 5858 5858 5858 5858 5858 5858
	0x0050:  5858 5858 5858 5858 5858 5858 5858 5858
	0x0060:  5858 5858 5858 5858 5858 5858 5858 5858
	0x0070:  5858 5858 5858 5858 5858 5858 5858 5858
	0x0080:  5858 5858 5858 5858 5858 5858 5858 5858
	0x0090:  5858 5858 5858 5858 5858 5858 5858 5858
11:42:06.681806 IP 190-0-175-100.gba.solunet.com.ar.2497 > 184.107.43.74.http: Flags [S], seq 586859843:586859963, win 512, length 120: HTTP
	0x0000:  4500 00a0 db5b 0000 4006 4de2 be00 af64
	0x0010:  b86b 2b4a 09c1 0050 22fa c543 7545 301e
	0x0020:  5002 0200 0fe9 0000 5858 5858 5858 5858
	0x0030:  5858 5858 5858 5858 5858 5858 5858 5858
	0x0040:  5858 5858 5858 5858 5858 5858 5858 5858
	0x0050:  5858 5858 5858 5858 5858 5858 5858 5858
	0x0060:  5858 5858 5858 5858 5858 5858 5858 5858
	0x0070:  5858 5858 5858 5858 5858 5858 5858 5858
	0x0080:  5858 5858 5858 5858 5858 5858 5858 5858
	0x0090:  5858 5858 5858 5858 5858 5858 5858 5858
11:42:06.681823 IP 190-0-175-100.gba.solunet.com.ar.2498 > 184.107.43.74.http: Flags [S], seq 1313429529:1313429649, win 512, length 120: HTTP
	0x0000:  4500 00a0 ecc8 0000 4006 3c75 be00 af64
	0x0010:  b86b 2b4a 09c2 0050 4e49 5819 1238 51b2
	0x0020:  5002 0200 933c 0000 5858 5858 5858 5858
	0x0030:  5858 5858 5858 5858 5858 5858 5858 5858
	0x0040:  5858 5858 5858 5858 5858 5858 5858 5858
	0x0050:  5858 5858 5858 5858 5858 5858 5858 5858
	0x0060:  5858 5858 5858 5858 5858 5858 5858 5858
	0x0070:  5858 5858 5858 5858 5858 5858 5858 5858
	0x0080:  5858 5858 5858 5858 5858 5858 5858 5858
	0x0090:  5858 5858 5858 5858 5858 5858 5858 5858
11:42:06.681839 IP 190-0-175-100.gba.solunet.com.ar.2499 > 184.107.43.74.http: Flags [S], seq 599747608:599747728, win 512, length 120: HTTP
	0x0000:  4500 00a0 19bb 0000 4006 0f83 be00 af64
	0x0010:  b86b 2b4a 09c3 0050 23bf 6c18 6c09 c724
	0x0020:  5002 0200 da82 0000 5858 5858 5858 5858
	0x0030:  5858 5858 5858 5858 5858 5858 5858 5858
	0x0040:  5858 5858 5858 5858 5858 5858 5858 5858
	0x0050:  5858 5858 5858 5858 5858 5858 5858 5858
	0x0060:  5858 5858 5858 5858 5858 5858 5858 5858
	0x0070:  5858 5858 5858 5858 5858 5858 5858 5858
	0x0080:  5858 5858 5858 5858 5858 5858 5858 5858
	0x0090:  5858 5858 5858 5858 5858 5858 5858 5858
11:42:06.681856 IP 190-0-175-100.gba.solunet.com.ar.2500 > 184.107.43.74.http: Flags [S], seq 1764270382:1764270502, win 512, length 120: HTTP
	0x0000:  4500 00a0 771e 0000 4006 b21f be00 af64
	0x0010:  b86b 2b4a 09c4 0050 6928 a12e 61bc daf9
	0x0020:  5002 0200 567a 0000 5858 5858 5858 5858
	0x0030:  5858 5858 5858 5858 5858 5858 5858 5858
	0x0040:  5858 5858 5858 5858 5858 5858 5858 5858
	0x0050:  5858 5858 5858 5858 5858 5858 5858 5858
	0x0060:  5858 5858 5858 5858 5858 5858 5858 5858
	0x0070:  5858 5858 5858 5858 5858 5858 5858 5858
	0x0080:  5858 5858 5858 5858 5858 5858 5858 5858
	0x0090:  5858 5858 5858 5858 5858 5858 5858 5858
11:42:06.681872 IP 190-0-175-100.gba.solunet.com.ar.2501 > 184.107.43.74.http: Flags [S], seq 1266534982:1266535102, win 512, length 120: HTTP
	0x0000:  4500 00a0 6bf6 0000 4006 bd47 be00 af64
	0x0010:  b86b 2b4a 09c5 0050 4b7d ca46 1c71 f933
	0x0020:  5002 0200 721d 0000 5858 5858 5858 5858
	0x0030:  5858 5858 5858 5858 5858 5858 5858 5858
	0x0040:  5858 5858 5858 5858 5858 5858 5858 5858
	0x0050:  5858 5858 5858 5858 5858 5858 5858 5858
	0x0060:  5858 5858 5858 5858 5858 5858 5858 5858
	0x0070:  5858 5858 5858 5858 5858 5858 5858 5858
	0x0080:  5858 5858 5858 5858 5858 5858 5858 5858
	0x0090:  5858 5858 5858 5858 5858 5858 5858 5858
11:42:06.681889 IP 190-0-175-100.gba.solunet.com.ar.2502 > 184.107.43.74.http: Flags [S], seq 1923888203:1923888323, win 512, length 120: HTTP
	0x0000:  4500 00a0 60f0 0000 4006 c84d be00 af64
	0x0010:  b86b 2b4a 09c6 0050 72ac 344b 17e4 f933
	0x0020:  5002 0200 e575 0000 5858 5858 5858 5858
	0x0030:  5858 5858 5858 5858 5858 5858 5858 5858
	0x0040:  5858 5858 5858 5858 5858 5858 5858 5858
	0x0050:  5858 5858 5858 5858 5858 5858 5858 5858
	0x0060:  5858 5858 5858 5858 5858 5858 5858 5858
	0x0070:  5858 5858 5858 5858 5858 5858 5858 5858
	0x0080:  5858 5858 5858 5858 5858 5858 5858 5858
	0x0090:  5858 5858 5858 5858 5858 5858 5858 5858
11:42:06.681906 IP 190-0-175-100.gba.solunet.com.ar.2503 > 184.107.43.74.http: Flags [S], seq 477956184:477956304, win 512, length 120: HTTP
	0x0000:  4500 00a0 d353 0000 4006 55ea be00 af64
	0x0010:  b86b 2b4a 09c7 0050 1c7d 0858 3a96 5356
	0x0020:  5002 0200 eac2 0000 5858 5858 5858 5858
	0x0030:  5858 5858 5858 5858 5858 5858 5858 5858
	0x0040:  5858 5858 5858 5858 5858 5858 5858 5858
	0x0050:  5858 5858 5858 5858 5858 5858 5858 5858
	0x0060:  5858 5858 5858 5858 5858 5858 5858 5858
	0x0070:  5858 5858 5858 5858 5858 5858 5858 5858
	0x0080:  5858 5858 5858 5858 5858 5858 5858 5858
	0x0090:  5858 5858 5858 5858 5858 5858 5858 5858
11:42:06.681924 IP 190-0-175-100.gba.solunet.com.ar.2504 > 184.107.43.74.http: Flags [S], seq 1697346829:1697346949, win 512, length 120: HTTP
	0x0000:  4500 00a0 1fbd 0000 4006 0981 be00 af64
	0x0010:  b86b 2b4a 09c8 0050 652b 750d 0ee9 476a
	0x0020:  5002 0200 6cf7 0000 5858 5858 5858 5858
	0x0030:  5858 5858 5858 5858 5858 5858 5858 5858
	0x0040:  5858 5858 5858 5858 5858 5858 5858 5858
	0x0050:  5858 5858 5858 5858 5858 5858 5858 5858
	0x0060:  5858 5858 5858 5858 5858 5858 5858 5858
	0x0070:  5858 5858 5858 5858 5858 5858 5858 5858
	0x0080:  5858 5858 5858 5858 5858 5858 5858 5858
	0x0090:  5858 5858 5858 5858 5858 5858 5858 5858
11:42:06.681941 IP 190-0-175-100.gba.solunet.com.ar.2505 > 184.107.43.74.http: Flags [S], seq 1581732153:1581732273, win 512, length 120: HTTP
	0x0000:  4500 00a0 2603 0000 4006 033b be00 af64
	0x0010:  b86b 2b4a 09c9 0050 5e47 5139 60ef ec64
	0x0020:  5002 0200 a0ad 0000 5858 5858 5858 5858
	0x0030:  5858 5858 5858 5858 5858 5858 5858 5858
	0x0040:  5858 5858 5858 5858 5858 5858 5858 5858
	0x0050:  5858 5858 5858 5858 5858 5858 5858 5858
	0x0060:  5858 5858 5858 5858 5858 5858 5858 5858
	0x0070:  5858 5858 5858 5858 5858 5858 5858 5858
	0x0080:  5858 5858 5858 5858 5858 5858 5858 5858
	0x0090:  5858 5858 5858 5858 5858 5858 5858 5858
11:42:06.681958 IP 190-0-175-100.gba.solunet.com.ar.2506 > 184.107.43.74.http: Flags [S], seq 2134846905:2134847025, win 512, length 120: HTTP
	0x0000:  4500 00a0 92c2 0000 4006 967b be00 af64
	0x0010:  b86b 2b4a 09ca 0050 7f3f 2db9 1039 d842
	0x0020:  5002 0200 080d 0000 5858 5858 5858 5858
	0x0030:  5858 5858 5858 5858 5858 5858 5858 5858
	0x0040:  5858 5858 5858 5858 5858 5858 5858 5858
	0x0050:  5858 5858 5858 5858 5858 5858 5858 5858
	0x0060:  5858 5858 5858 5858 5858 5858 5858 5858
	0x0070:  5858 5858 5858 5858 5858 5858 5858 5858
	0x0080:  5858 5858 5858 5858 5858 5858 5858 5858
	0x0090:  5858 5858 5858 5858 5858 5858 5858 5858
11:42:06.681975 IP 190-0-175-100.gba.solunet.com.ar.2507 > 184.107.43.74.http: Flags [S], seq 5001436:5001556, win 512, length 120: HTTP
	0x0000:  4500 00a0 c2e0 0000 4006 665d be00 af64
	0x0010:  b86b 2b4a 09cb 0050 004c 50dc 3334 9d86
	0x0020:  5002 0200 7b9d 0000 5858 5858 5858 5858
	0x0030:  5858 5858 5858 5858 5858 5858 5858 5858
	0x0040:  5858 5858 5858 5858 5858 5858 5858 5858
	0x0050:  5858 5858 5858 5858 5858 5858 5858 5858
	0x0060:  5858 5858 5858 5858 5858 5858 5858 5858
	0x0070:  5858 5858 5858 5858 5858 5858 5858 5858
	0x0080:  5858 5858 5858 5858 5858 5858 5858 5858
	0x0090:  5858 5858 5858 5858 5858 5858 5858 5858
11:42:06.681992 IP 190-0-175-100.gba.solunet.com.ar.2508 > 184.107.43.74.http: Flags [S], seq 100084791:100084911, win 512, length 120: HTTP
	0x0000:  4500 00a0 1493 0000 4006 14ab be00 af64
	0x0010:  b86b 2b4a 09cc 0050 05f7 2c37 017d f59f
	0x0020:  5002 0200 7434 0000 5858 5858 5858 5858
	0x0030:  5858 5858 5858 5858 5858 5858 5858 5858
	0x0040:  5858 5858 5858 5858 5858 5858 5858 5858
	0x0050:  5858 5858 5858 5858 5858 5858 5858 5858
	0x0060:  5858 5858 5858 5858 5858 5858 5858 5858
	0x0070:  5858 5858 5858 5858 5858 5858 5858 5858
	0x0080:  5858 5858 5858 5858 5858 5858 5858 5858
	0x0090:  5858 5858 5858 5858 5858 5858 5858 5858
11:42:06.682008 IP 190-0-175-100.gba.solunet.com.ar.2509 > 184.107.43.74.http: Flags [S], seq 1351883007:1351883127, win 512, length 120: HTTP
	0x0000:  4500 00a0 dbb7 0000 4006 4d86 be00 af64
	0x0010:  b86b 2b4a 09cd 0050 5094 18ff 253d 61b7
	0x0020:  5002 0200 acf6 0000 5858 5858 5858 5858
	0x0030:  5858 5858 5858 5858 5858 5858 5858 5858
	0x0040:  5858 5858 5858 5858 5858 5858 5858 5858
	0x0050:  5858 5858 5858 5858 5858 5858 5858 5858
	0x0060:  5858 5858 5858 5858 5858 5858 5858 5858
	0x0070:  5858 5858 5858 5858 5858 5858 5858 5858
	0x0080:  5858 5858 5858 5858 5858 5858 5858 5858
	0x0090:  5858 5858 5858 5858 5858 5858 5858 5858
11:42:06.682025 IP 190-0-175-100.gba.solunet.com.ar.2510 > 184.107.43.74.http: Flags [S], seq 892547770:892547890, win 512, length 120: HTTP
	0x0000:  4500 00a0 b6b0 0000 4006 728d be00 af64
	0x0010:  b86b 2b4a 09ce 0050 3533 32ba 0e66 02e5
	0x0020:  5002 0200 2445 0000 5858 5858 5858 5858
	0x0030:  5858 5858 5858 5858 5858 5858 5858 5858
	0x0040:  5858 5858 5858 5858 5858 5858 5858 5858
	0x0050:  5858 5858 5858 5858 5858 5858 5858 5858
	0x0060:  5858 5858 5858 5858 5858 5858 5858 5858
	0x0070:  5858 5858 5858 5858 5858 5858 5858 5858
	0x0080:  5858 5858 5858 5858 5858 5858 5858 5858
	0x0090:  5858 5858 5858 5858 5858 5858 5858 5858
11:42:06.682041 IP 190-0-175-100.gba.solunet.com.ar.2511 > 184.107.43.74.http: Flags [S], seq 203925976:203926096, win 512, length 120: HTTP
	0x0000:  4500 00a0 afe3 0000 4006 795a be00 af64
	0x0010:  b86b 2b4a 09cf 0050 0c27 a9d8 59e3 cd2c
	0x0020:  5002 0200 c06c 0000 5858 5858 5858 5858
	0x0030:  5858 5858 5858 5858 5858 5858 5858 5858
	0x0040:  5858 5858 5858 5858 5858 5858 5858 5858
	0x0050:  5858 5858 5858 5858 5858 5858 5858 5858
	0x0060:  5858 5858 5858 5858 5858 5858 5858 5858
	0x0070:  5858 5858 5858 5858 5858 5858 5858 5858
	0x0080:  5858 5858 5858 5858 5858 5858 5858 5858
	0x0090:  5858 5858 5858 5858 5858 5858 5858 5858
11:42:06.682058 IP 190-0-175-100.gba.solunet.com.ar.2512 > 184.107.43.74.http: Flags [S], seq 93263311:93263431, win 512, length 120: HTTP
	0x0000:  4500 00a0 a917 0000 4006 8026 be00 af64
	0x0010:  b86b 2b4a 09d0 0050 058f 15cf 4c90 0177
	0x0020:  5002 0200 3416 0000 5858 5858 5858 5858
	0x0030:  5858 5858 5858 5858 5858 5858 5858 5858
	0x0040:  5858 5858 5858 5858 5858 5858 5858 5858
	0x0050:  5858 5858 5858 5858 5858 5858 5858 5858
	0x0060:  5858 5858 5858 5858 5858 5858 5858 5858
	0x0070:  5858 5858 5858 5858 5858 5858 5858 5858
	0x0080:  5858 5858 5858 5858 5858 5858 5858 5858
	0x0090:  5858 5858 5858 5858 5858 5858 5858 5858
11:42:06.682075 IP 190-0-175-100.gba.solunet.com.ar.2513 > 184.107.43.74.http: Flags [S], seq 589592255:589592375, win 512, length 120: HTTP
	0x0000:  4500 00a0 fc6d 0000 4006 2cd0 be00 af64
	0x0010:  b86b 2b4a 09d1 0050 2324 76bf 690d 09cf
	0x0020:  5002 0200 90ba 0000 5858 5858 5858 5858
	0x0030:  5858 5858 5858 5858 5858 5858 5858 5858
	0x0040:  5858 5858 5858 5858 5858 5858 5858 5858
	0x0050:  5858 5858 5858 5858 5858 5858 5858 5858
	0x0060:  5858 5858 5858 5858 5858 5858 5858 5858
	0x0070:  5858 5858 5858 5858 5858 5858 5858 5858
	0x0080:  5858 5858 5858 5858 5858 5858 5858 5858
	0x0090:  5858 5858 5858 5858 5858 5858 5858 5858
11:42:06.682092 IP 190-0-175-100.gba.solunet.com.ar.2514 > 184.107.43.74.http: Flags [S], seq 1666861586:1666861706, win 512, length 120: HTTP
	0x0000:  4500 00a0 43d7 0000 4006 e566 be00 af64
	0x0010:  b86b 2b4a 09d2 0050 635a 4a12 4e38 7edd
	0x0020:  5002 0200 22f7 0000 5858 5858 5858 5858
	0x0030:  5858 5858 5858 5858 5858 5858 5858 5858
	0x0040:  5858 5858 5858 5858 5858 5858 5858 5858
	0x0050:  5858 5858 5858 5858 5858 5858 5858 5858
	0x0060:  5858 5858 5858 5858 5858 5858 5858 5858
	0x0070:  5858 5858 5858 5858 5858 5858 5858 5858
	0x0080:  5858 5858 5858 5858 5858 5858 5858 5858
	0x0090:  5858 5858 5858 5858 5858 5858 5858 5858
11:42:06.682108 IP 190-0-175-100.gba.solunet.com.ar.2515 > 184.107.43.74.http: Flags [S], seq 1444571600:1444571720, win 512, length 120: HTTP
	0x0000:  4500 00a0 303b 0000 4006 f902 be00 af64
	0x0010:  b86b 2b4a 09d3 0050 561a 69d0 2c7f d016
	0x0020:  5002 0200 e0f7 0000 5858 5858 5858 5858
	0x0030:  5858 5858 5858 5858 5858 5858 5858 5858
	0x0040:  5858 5858 5858 5858 5858 5858 5858 5858
	0x0050:  5858 5858 5858 5858 5858 5858 5858 5858
	0x0060:  5858 5858 5858 5858 5858 5858 5858 5858
	0x0070:  5858 5858 5858 5858 5858 5858 5858 5858
	0x0080:  5858 5858 5858 5858 5858 5858 5858 5858
	0x0090:  5858 5858 5858 5858 5858 5858 5858 5858
11:42:06.682125 IP 190-0-175-100.gba.solunet.com.ar.2516 > 184.107.43.74.http: Flags [S], seq 702975955:702976075, win 512, length 120: HTTP
	0x0000:  4500 00a0 087e 0000 4006 20c0 be00 af64
	0x0010:  b86b 2b4a 09d4 0050 29e6 8fd3 2bbe fdcf
	0x0020:  5002 0200 ba2f 0000 5858 5858 5858 5858
	0x0030:  5858 5858 5858 5858 5858 5858 5858 5858
	0x0040:  5858 5858 5858 5858 5858 5858 5858 5858
	0x0050:  5858 5858 5858 5858 5858 5858 5858 5858
	0x0060:  5858 5858 5858 5858 5858 5858 5858 5858
	0x0070:  5858 5858 5858 5858 5858 5858 5858 5858
	0x0080:  5858 5858 5858 5858 5858 5858 5858 5858
	0x0090:  5858 5858 5858 5858 5858 5858 5858 5858
11:42:06.682152 IP 190-0-175-100.gba.solunet.com.ar.2517 > 184.107.43.74.http: Flags [S], seq 2016486038:2016486158, win 512, length 120: HTTP
	0x0000:  4500 00a0 a604 0000 4006 8339 be00 af64
	0x0010:  b86b 2b4a 09d5 0050 7831 2296 2c0b 4eab
	0x0020:  5002 0200 87f8 0000 5858 5858 5858 5858
	0x0030:  5858 5858 5858 5858 5858 5858 5858 5858
	0x0040:  5858 5858 5858 5858 5858 5858 5858 5858
	0x0050:  5858 5858 5858 5858 5858 5858 5858 5858
	0x0060:  5858 5858 5858 5858 5858 5858 5858 5858
	0x0070:  5858 5858 5858 5858 5858 5858 5858 5858
	0x0080:  5858 5858 5858 5858 5858 5858 5858 5858
	0x0090:  5858 5858 5858 5858 5858 5858 5858 5858
11:42:06.682172 IP 190-0-175-100.gba.solunet.com.ar.2518 > 184.107.43.74.http: Flags [S], seq 1002497398:1002497518, win 512, length 120: HTTP
	0x0000:  4500 00a0 9ba3 0000 4006 8d9a be00 af64
	0x0010:  b86b 2b4a 09d6 0050 3bc0 e576 3202 7ae2
	0x0020:  5002 0200 cf59 0000 5858 5858 5858 5858
	0x0030:  5858 5858 5858 5858 5858 5858 5858 5858
	0x0040:  5858 5858 5858 5858 5858 5858 5858 5858
	0x0050:  5858 5858 5858 5858 5858 5858 5858 5858
	0x0060:  5858 5858 5858 5858 5858 5858 5858 5858
	0x0070:  5858 5858 5858 5858 5858 5858 5858 5858
	0x0080:  5858 5858 5858 5858 5858 5858 5858 5858
	0x0090:  5858 5858 5858 5858 5858 5858 5858 5858
11:42:06.682191 IP 190-0-175-100.gba.solunet.com.ar.2519 > 184.107.43.74.http: Flags [S], seq 294189577:294189697, win 512, length 120: HTTP
	0x0000:  4500 00a0 fd5a 0000 4006 2be3 be00 af64
	0x0010:  b86b 2b4a 09d7 0050 1188 fa09 0296 93e1
	0x0020:  5002 0200 fb6a 0000 5858 5858 5858 5858
	0x0030:  5858 5858 5858 5858 5858 5858 5858 5858
	0x0040:  5858 5858 5858 5858 5858 5858 5858 5858
	0x0050:  5858 5858 5858 5858 5858 5858 5858 5858
	0x0060:  5858 5858 5858 5858 5858 5858 5858 5858
	0x0070:  5858 5858 5858 5858 5858 5858 5858 5858
	0x0080:  5858 5858 5858 5858 5858 5858 5858 5858
	0x0090:  5858 5858 5858 5858 5858 5858 5858 5858
11:42:06.682210 IP 190-0-175-100.gba.solunet.com.ar.2520 > 184.107.43.74.http: Flags [S], seq 1398461889:1398462009, win 512, length 120: HTTP
	0x0000:  4500 00a0 003f 0000 4006 28ff be00 af64
	0x0010:  b86b 2b4a 09d8 0050 535a d5c1 37c9 c69b
	0x0020:  5002 0200 75f2 0000 5858 5858 5858 5858
	0x0030:  5858 5858 5858 5858 5858 5858 5858 5858
	0x0040:  5858 5858 5858 5858 5858 5858 5858 5858
	0x0050:  5858 5858 5858 5858 5858 5858 5858 5858
	0x0060:  5858 5858 5858 5858 5858 5858 5858 5858
	0x0070:  5858 5858 5858 5858 5858 5858 5858 5858
	0x0080:  5858 5858 5858 5858 5858 5858 5858 5858
	0x0090:  5858 5858 5858 5858 5858 5858 5858 5858
11:42:06.682227 IP 190-0-175-100.gba.solunet.com.ar.2521 > 184.107.43.74.http: Flags [S], seq 1995017329:1995017449, win 512, length 120: HTTP
	0x0000:  4500 00a0 cd6b 0000 4006 5bd2 be00 af64
	0x0010:  b86b 2b4a 09d9 0050 76e9 8c71 43f1 7073
	0x0020:  5002 0200 e5b2 0000 5858 5858 5858 5858
	0x0030:  5858 5858 5858 5858 5858 5858 5858 5858
	0x0040:  5858 5858 5858 5858 5858 5858 5858 5858
	0x0050:  5858 5858 5858 5858 5858 5858 5858 5858
	0x0060:  5858 5858 5858 5858 5858 5858 5858 5858
	0x0070:  5858 5858 5858 5858 5858 5858 5858 5858
	0x0080:  5858 5858 5858 5858 5858 5858 5858 5858
	0x0090:  5858 5858 5858 5858 5858 5858 5858 5858
11:42:06.682243 IP 190-0-175-100.gba.solunet.com.ar.2522 > 184.107.43.74.http: Flags [S], seq 921320533:921320653, win 512, length 120: HTTP
	0x0000:  4500 00a0 cee3 0000 4006 5a5a be00 af64
	0x0010:  b86b 2b4a 09da 0050 36ea 3c55 4980 8642
	0x0020:  5002 0200 5a6f 0000 5858 5858 5858 5858
	0x0030:  5858 5858 5858 5858 5858 5858 5858 5858
	0x0040:  5858 5858 5858 5858 5858 5858 5858 5858
	0x0050:  5858 5858 5858 5858 5858 5858 5858 5858
	0x0060:  5858 5858 5858 5858 5858 5858 5858 5858
	0x0070:  5858 5858 5858 5858 5858 5858 5858 5858
	0x0080:  5858 5858 5858 5858 5858 5858 5858 5858
	0x0090:  5858 5858 5858 5858 5858 5858 5858 5858
11:42:06.682259 IP 190-0-175-100.gba.solunet.com.ar.2523 > 184.107.43.74.http: Flags [S], seq 248505708:248505828, win 512, length 120: HTTP
	0x0000:  4500 00a0 d8b2 0000 4006 508b be00 af64
	0x0010:  b86b 2b4a 09db 0050 0ecf e56c 6ca4 fd02
	0x0020:  5002 0200 3f8d 0000 5858 5858 5858 5858
	0x0030:  5858 5858 5858 5858 5858 5858 5858 5858
	0x0040:  5858 5858 5858 5858 5858 5858 5858 5858
	0x0050:  5858 5858 5858 5858 5858 5858 5858 5858
	0x0060:  5858 5858 5858 5858 5858 5858 5858 5858
	0x0070:  5858 5858 5858 5858 5858 5858 5858 5858
	0x0080:  5858 5858 5858 5858 5858 5858 5858 5858
	0x0090:  5858 5858 5858 5858 5858 5858 5858 5858
11:42:06.682276 IP 190-0-175-100.gba.solunet.com.ar.2524 > 184.107.43.74.http: Flags [S], seq 558621145:558621265, win 512, length 120: HTTP
	0x0000:  4500 00a0 578f 0000 4006 d1ae be00 af64
	0x0010:  b86b 2b4a 09dc 0050 214b e1d9 4fff 4714
	0x0020:  5002 0200 0337 0000 5858 5858 5858 5858
	0x0030:  5858 5858 5858 5858 5858 5858 5858 5858
	0x0040:  5858 5858 5858 5858 5858 5858 5858 5858
	0x0050:  5858 5858 5858 5858 5858 5858 5858 5858
	0x0060:  5858 5858 5858 5858 5858 5858 5858 5858
	0x0070:  5858 5858 5858 5858 5858 5858 5858 5858
	0x0080:  5858 5858 5858 5858 5858 5858 5858 5858
	0x0090:  5858 5858 5858 5858 5858 5858 5858 5858
11:42:06.682292 IP 190-0-175-100.gba.solunet.com.ar.2525 > 184.107.43.74.http: Flags [S], seq 1118905776:1118905896, win 512, length 120: HTTP
	0x0000:  4500 00a0 27a5 0000 4006 0199 be00 af64
	0x0010:  b86b 2b4a 09dd 0050 42b1 25b0 2619 b0e4
	0x0020:  5002 0200 5e0f 0000 5858 5858 5858 5858
	0x0030:  5858 5858 5858 5858 5858 5858 5858 5858
	0x0040:  5858 5858 5858 5858 5858 5858 5858 5858
	0x0050:  5858 5858 5858 5858 5858 5858 5858 5858
	0x0060:  5858 5858 5858 5858 5858 5858 5858 5858
	0x0070:  5858 5858 5858 5858 5858 5858 5858 5858
	0x0080:  5858 5858 5858 5858 5858 5858 5858 5858
	0x0090:  5858 5858 5858 5858 5858 5858 5858 5858
11:42:06.682308 IP 190-0-175-100.gba.solunet.com.ar.2526 > 184.107.43.74.http: Flags [S], seq 1158043116:1158043236, win 512, length 120: HTTP
	0x0000:  4500 00a0 2574 0000 4006 03ca be00 af64
	0x0010:  b86b 2b4a 09de 0050 4506 55ec 5000 40b8
	0x0020:  5002 0200 71c2 0000 5858 5858 5858 5858
	0x0030:  5858 5858 5858 5858 5858 5858 5858 5858
	0x0040:  5858 5858 5858 5858 5858 5858 5858 5858
	0x0050:  5858 5858 5858 5858 5858 5858 5858 5858
	0x0060:  5858 5858 5858 5858 5858 5858 5858 5858
	0x0070:  5858 5858 5858 5858 5858 5858 5858 5858
	0x0080:  5858 5858 5858 5858 5858 5858 5858 5858
	0x0090:  5858 5858 5858 5858 5858 5858 5858 5858
11:42:06.682325 IP 190-0-175-100.gba.solunet.com.ar.2527 > 184.107.43.74.http: Flags [S], seq 1469406826:1469406946, win 512, length 120: HTTP
	0x0000:  4500 00a0 741f 0000 4006 b51e be00 af64
	0x0010:  b86b 2b4a 09df 0050 5795 5e6a 4831 634e
	0x0020:  5002 0200 3bed 0000 5858 5858 5858 5858
	0x0030:  5858 5858 5858 5858 5858 5858 5858 5858
	0x0040:  5858 5858 5858 5858 5858 5858 5858 5858
	0x0050:  5858 5858 5858 5858 5858 5858 5858 5858
	0x0060:  5858 5858 5858 5858 5858 5858 5858 5858
	0x0070:  5858 5858 5858 5858 5858 5858 5858 5858
	0x0080:  5858 5858 5858 5858 5858 5858 5858 5858
	0x0090:  5858 5858 5858 5858 5858 5858 5858 5858
11:42:06.682341 IP 190-0-175-100.gba.solunet.com.ar.2528 > 184.107.43.74.http: Flags [S], seq 492373102:492373222, win 512, length 120: HTTP
	0x0000:  4500 00a0 ef01 0000 4006 3a3c be00 af64
	0x0010:  b86b 2b4a 09e0 0050 1d59 046e 03f2 48c4
	0x0020:  5002 0200 2eee 0000 5858 5858 5858 5858
	0x0030:  5858 5858 5858 5858 5858 5858 5858 5858
	0x0040:  5858 5858 5858 5858 5858 5858 5858 5858
	0x0050:  5858 5858 5858 5858 5858 5858 5858 5858
	0x0060:  5858 5858 5858 5858 5858 5858 5858 5858
	0x0070:  5858 5858 5858 5858 5858 5858 5858 5858
	0x0080:  5858 5858 5858 5858 5858 5858 5858 5858
	0x0090:  5858 5858 5858 5858 5858 5858 5858 5858
11:42:06.682357 IP 190-0-175-100.gba.solunet.com.ar.2529 > 184.107.43.74.http: Flags [S], seq 1687855121:1687855241, win 512, length 120: HTTP
	0x0000:  4500 00a0 82e2 0000 4006 a65b be00 af64
	0x0010:  b86b 2b4a 09e1 0050 649a a011 157b 42ce
	0x0020:  5002 0200 4075 0000 5858 5858 5858 5858
	0x0030:  5858 5858 5858 5858 5858 5858 5858 5858
	0x0040:  5858 5858 5858 5858 5858 5858 5858 5858
	0x0050:  5858 5858 5858 5858 5858 5858 5858 5858
	0x0060:  5858 5858 5858 5858 5858 5858 5858 5858
	0x0070:  5858 5858 5858 5858 5858 5858 5858 5858
	0x0080:  5858 5858 5858 5858 5858 5858 5858 5858
	0x0090:  5858 5858 5858 5858 5858 5858 5858 5858
11:42:06.682374 IP 190-0-175-100.gba.solunet.com.ar.2530 > 184.107.43.74.http: Flags [S], seq 1360633195:1360633315, win 512, length 120: HTTP
	0x0000:  4500 00a0 497d 0000 4006 dfc0 be00 af64
	0x0010:  b86b 2b4a 09e2 0050 5119 9d6b 68d6 188f
	0x0020:  5002 0200 2d7f 0000 5858 5858 5858 5858
	0x0030:  5858 5858 5858 5858 5858 5858 5858 5858
	0x0040:  5858 5858 5858 5858 5858 5858 5858 5858
	0x0050:  5858 5858 5858 5858 5858 5858 5858 5858
	0x0060:  5858 5858 5858 5858 5858 5858 5858 5858
	0x0070:  5858 5858 5858 5858 5858 5858 5858 5858
	0x0080:  5858 5858 5858 5858 5858 5858 5858 5858
	0x0090:  5858 5858 5858 5858 5858 5858 5858 5858
11:42:06.682390 IP 190-0-175-100.gba.solunet.com.ar.2531 > 184.107.43.74.http: Flags [S], seq 1274977706:1274977826, win 512, length 120: HTTP
	0x0000:  4500 00a0 b9f1 0000 4006 6f4c be00 af64
	0x0010:  b86b 2b4a 09e3 0050 4bfe 9daa 5fbf a500
	0x0020:  5002 0200 aeff 0000 5858 5858 5858 5858
	0x0030:  5858 5858 5858 5858 5858 5858 5858 5858
	0x0040:  5858 5858 5858 5858 5858 5858 5858 5858
	0x0050:  5858 5858 5858 5858 5858 5858 5858 5858
	0x0060:  5858 5858 5858 5858 5858 5858 5858 5858
	0x0070:  5858 5858 5858 5858 5858 5858 5858 5858
	0x0080:  5858 5858 5858 5858 5858 5858 5858 5858
	0x0090:  5858 5858 5858 5858 5858 5858 5858 5858
11:42:06.682407 IP 190-0-175-100.gba.solunet.com.ar.2532 > 184.107.43.74.http: Flags [S], seq 549939990:549940110, win 512, length 120: HTTP
	0x0000:  4500 00a0 4033 0000 4006 e90a be00 af64
	0x0010:  b86b 2b4a 09e4 0050 20c7 6b16 16a9 e155
	0x0020:  5002 0200 198b 0000 5858 5858 5858 5858
	0x0030:  5858 5858 5858 5858 5858 5858 5858 5858
	0x0040:  5858 5858 5858 5858 5858 5858 5858 5858
	0x0050:  5858 5858 5858 5858 5858 5858 5858 5858
	0x0060:  5858 5858 5858 5858 5858 5858 5858 5858
	0x0070:  5858 5858 5858 5858 5858 5858 5858 5858
	0x0080:  5858 5858 5858 5858 5858 5858 5858 5858
	0x0090:  5858 5858 5858 5858 5858 5858 5858 5858
11:42:06.682423 IP 190-0-175-100.gba.solunet.com.ar.2533 > 184.107.43.74.http: Flags [S], seq 1109408249:1109408369, win 512, length 120: HTTP
	0x0000:  4500 00a0 3d35 0000 4006 ec08 be00 af64
	0x0010:  b86b 2b4a 09e5 0050 4220 39f9 2579 c6c1
	0x0020:  5002 0200 3512 0000 5858 5858 5858 5858
	0x0030:  5858 5858 5858 5858 5858 5858 5858 5858
	0x0040:  5858 5858 5858 5858 5858 5858 5858 5858
	0x0050:  5858 5858 5858 5858 5858 5858 5858 5858
	0x0060:  5858 5858 5858 5858 5858 5858 5858 5858
	0x0070:  5858 5858 5858 5858 5858 5858 5858 5858
	0x0080:  5858 5858 5858 5858 5858 5858 5858 5858
	0x0090:  5858 5858 5858 5858 5858 5858 5858 5858
11:42:06.682439 IP 190-0-175-100.gba.solunet.com.ar.2534 > 184.107.43.74.http: Flags [S], seq 1283855019:1283855139, win 512, length 120: HTTP
	0x0000:  4500 00a0 844a 0000 4006 a4f3 be00 af64
	0x0010:  b86b 2b4a 09e6 0050 4c86 12ab 46c5 a89a
	0x0020:  5002 0200 4ed4 0000 5858 5858 5858 5858
	0x0030:  5858 5858 5858 5858 5858 5858 5858 5858
	0x0040:  5858 5858 5858 5858 5858 5858 5858 5858
	0x0050:  5858 5858 5858 5858 5858 5858 5858 5858
	0x0060:  5858 5858 5858 5858 5858 5858 5858 5858
	0x0070:  5858 5858 5858 5858 5858 5858 5858 5858
	0x0080:  5858 5858 5858 5858 5858 5858 5858 5858
	0x0090:  5858 5858 5858 5858 5858 5858 5858 5858
11:42:06.682455 IP 190-0-175-100.gba.solunet.com.ar.2535 > 184.107.43.74.http: Flags [S], seq 623143483:623143603, win 512, length 120: HTTP
	0x0000:  4500 00a0 352e 0000 4006 f40f be00 af64
	0x0010:  b86b 2b4a 09e7 0050 2524 6a3b 0976 ce4b
	0x0020:  5002 0200 3643 0000 5858 5858 5858 5858
	0x0030:  5858 5858 5858 5858 5858 5858 5858 5858
	0x0040:  5858 5858 5858 5858 5858 5858 5858 5858
	0x0050:  5858 5858 5858 5858 5858 5858 5858 5858
	0x0060:  5858 5858 5858 5858 5858 5858 5858 5858
	0x0070:  5858 5858 5858 5858 5858 5858 5858 5858
	0x0080:  5858 5858 5858 5858 5858 5858 5858 5858
	0x0090:  5858 5858 5858 5858 5858 5858 5858 5858
11:42:06.682472 IP 190-0-175-100.gba.solunet.com.ar.2536 > 184.107.43.74.http: Flags [S], seq 709005792:709005912, win 512, length 120: HTTP
	0x0000:  4500 00a0 75e6 0000 4006 b357 be00 af64
	0x0010:  b86b 2b4a 09e8 0050 2a42 91e0 4e7d 2437
	0x0020:  5002 0200 6e8c 0000 5858 5858 5858 5858
	0x0030:  5858 5858 5858 5858 5858 5858 5858 5858
	0x0040:  5858 5858 5858 5858 5858 5858 5858 5858
	0x0050:  5858 5858 5858 5858 5858 5858 5858 5858
	0x0060:  5858 5858 5858 5858 5858 5858 5858 5858
	0x0070:  5858 5858 5858 5858 5858 5858 5858 5858
	0x0080:  5858 5858 5858 5858 5858 5858 5858 5858
	0x0090:  5858 5858 5858 5858 5858 5858 5858 5858
11:42:06.682488 IP 190-0-175-100.gba.solunet.com.ar.2537 > 184.107.43.74.http: Flags [S], seq 1528805205:1528805325, win 512, length 120: HTTP
	0x0000:  4500 00a0 d934 0000 4006 5009 be00 af64
	0x0010:  b86b 2b4a 09e9 0050 5b1f b755 2612 82a1
	0x0020:  5002 0200 e239 0000 5858 5858 5858 5858
	0x0030:  5858 5858 5858 5858 5858 5858 5858 5858
	0x0040:  5858 5858 5858 5858 5858 5858 5858 5858
	0x0050:  5858 5858 5858 5858 5858 5858 5858 5858
	0x0060:  5858 5858 5858 5858 5858 5858 5858 5858
	0x0070:  5858 5858 5858 5858 5858 5858 5858 5858
	0x0080:  5858 5858 5858 5858 5858 5858 5858 5858
	0x0090:  5858 5858 5858 5858 5858 5858 5858 5858
11:42:06.682504 IP 190-0-175-100.gba.solunet.com.ar.2538 > 184.107.43.74.http: Flags [S], seq 940059508:940059628, win 512, length 120: HTTP
	0x0000:  4500 00a0 21f9 0000 4006 0745 be00 af64
	0x0010:  b86b 2b4a 09ea 0050 3808 2b74 436b 870f
	0x0020:  5002 0200 6f6a 0000 5858 5858 5858 5858
	0x0030:  5858 5858 5858 5858 5858 5858 5858 5858
	0x0040:  5858 5858 5858 5858 5858 5858 5858 5858
	0x0050:  5858 5858 5858 5858 5858 5858 5858 5858
	0x0060:  5858 5858 5858 5858 5858 5858 5858 5858
	0x0070:  5858 5858 5858 5858 5858 5858 5858 5858
	0x0080:  5858 5858 5858 5858 5858 5858 5858 5858
	0x0090:  5858 5858 5858 5858 5858 5858 5858 5858
11:42:06.682521 IP 190-0-175-100.gba.solunet.com.ar.2539 > 184.107.43.74.http: Flags [S], seq 1190337142:1190337262, win 512, length 120: HTTP
	0x0000:  4500 00a0 64c7 0000 4006 c476 be00 af64
	0x0010:  b86b 2b4a 09eb 0050 46f3 1a76 2806 2720
	0x0020:  5002 0200 ecd0 0000 5858 5858 5858 5858
	0x0030:  5858 5858 5858 5858 5858 5858 5858 5858
	0x0040:  5858 5858 5858 5858 5858 5858 5858 5858
	0x0050:  5858 5858 5858 5858 5858 5858 5858 5858
	0x0060:  5858 5858 5858 5858 5858 5858 5858 5858
	0x0070:  5858 5858 5858 5858 5858 5858 5858 5858
	0x0080:  5858 5858 5858 5858 5858 5858 5858 5858
	0x0090:  5858 5858 5858 5858 5858 5858 5858 5858
11:42:06.682537 IP 190-0-175-100.gba.solunet.com.ar.2540 > 184.107.43.74.http: Flags [S], seq 1484037464:1484037584, win 512, length 120: HTTP
	0x0000:  4500 00a0 7d56 0000 4006 abe7 be00 af64
	0x0010:  b86b 2b4a 09ec 0050 5874 9d58 791f c48b
	0x0020:  5002 0200 69e7 0000 5858 5858 5858 5858
	0x0030:  5858 5858 5858 5858 5858 5858 5858 5858
	0x0040:  5858 5858 5858 5858 5858 5858 5858 5858
	0x0050:  5858 5858 5858 5858 5858 5858 5858 5858
	0x0060:  5858 5858 5858 5858 5858 5858 5858 5858
	0x0070:  5858 5858 5858 5858 5858 5858 5858 5858
	0x0080:  5858 5858 5858 5858 5858 5858 5858 5858
	0x0090:  5858 5858 5858 5858 5858 5858 5858 5858
11:42:06.682553 IP 190-0-175-100.gba.solunet.com.ar.2541 > 184.107.43.74.http: Flags [S], seq 566224598:566224718, win 512, length 120: HTTP
	0x0000:  4500 00a0 2256 0000 4006 06e8 be00 af64
	0x0010:  b86b 2b4a 09ed 0050 21bf e6d6 451e 6235
	0x0020:  5002 0200 ed74 0000 5858 5858 5858 5858
	0x0030:  5858 5858 5858 5858 5858 5858 5858 5858
	0x0040:  5858 5858 5858 5858 5858 5858 5858 5858
	0x0050:  5858 5858 5858 5858 5858 5858 5858 5858
	0x0060:  5858 5858 5858 5858 5858 5858 5858 5858
	0x0070:  5858 5858 5858 5858 5858 5858 5858 5858
	0x0080:  5858 5858 5858 5858 5858 5858 5858 5858
	0x0090:  5858 5858 5858 5858 5858 5858 5858 5858
11:42:06.682570 IP 190-0-175-100.gba.solunet.com.ar.2542 > 184.107.43.74.http: Flags [S], seq 788308167:788308287, win 512, length 120: HTTP
	0x0000:  4500 00a0 03ac 0000 4006 2592 be00 af64
	0x0010:  b86b 2b4a 09ee 0050 2efc a0c7 65e5 cd4b
	0x0020:  5002 0200 9a68 0000 5858 5858 5858 5858
	0x0030:  5858 5858 5858 5858 5858 5858 5858 5858
	0x0040:  5858 5858 5858 5858 5858 5858 5858 5858
	0x0050:  5858 5858 5858 5858 5858 5858 5858 5858
	0x0060:  5858 5858 5858 5858 5858 5858 5858 5858
	0x0070:  5858 5858 5858 5858 5858 5858 5858 5858
	0x0080:  5858 5858 5858 5858 5858 5858 5858 5858
	0x0090:  5858 5858 5858 5858 5858 5858 5858 5858
11:42:06.682586 IP 190-0-175-100.gba.solunet.com.ar.2543 > 184.107.43.74.http: Flags [S], seq 96067834:96067954, win 512, length 120: HTTP
	0x0000:  4500 00a0 ca6d 0000 4006 5ed0 be00 af64
	0x0010:  b86b 2b4a 09ef 0050 05b9 e0fa 2806 0744
	0x0020:  5002 0200 875e 0000 5858 5858 5858 5858
	0x0030:  5858 5858 5858 5858 5858 5858 5858 5858
	0x0040:  5858 5858 5858 5858 5858 5858 5858 5858
	0x0050:  5858 5858 5858 5858 5858 5858 5858 5858
	0x0060:  5858 5858 5858 5858 5858 5858 5858 5858
	0x0070:  5858 5858 5858 5858 5858 5858 5858 5858
	0x0080:  5858 5858 5858 5858 5858 5858 5858 5858
	0x0090:  5858 5858 5858 5858 5858 5858 5858 5858
11:42:06.682602 IP 190-0-175-100.gba.solunet.com.ar.2544 > 184.107.43.74.http: Flags [S], seq 1226579504:1226579624, win 512, length 120: HTTP
	0x0000:  4500 00a0 7308 0000 4006 b635 be00 af64
	0x0010:  b86b 2b4a 09f0 0050 491c 1e30 748c 19f0
	0x0020:  5002 0200 a792 0000 5858 5858 5858 5858
	0x0030:  5858 5858 5858 5858 5858 5858 5858 5858
	0x0040:  5858 5858 5858 5858 5858 5858 5858 5858
	0x0050:  5858 5858 5858 5858 5858 5858 5858 5858
	0x0060:  5858 5858 5858 5858 5858 5858 5858 5858
	0x0070:  5858 5858 5858 5858 5858 5858 5858 5858
	0x0080:  5858 5858 5858 5858 5858 5858 5858 5858
	0x0090:  5858 5858 5858 5858 5858 5858 5858 5858
11:42:06.682619 IP 190-0-175-100.gba.solunet.com.ar.2545 > 184.107.43.74.http: Flags [S], seq 1551737466:1551737586, win 512, length 120: HTTP
	0x0000:  4500 00a0 4153 0000 4006 e7ea be00 af64
	0x0010:  b86b 2b4a 09f1 0050 5c7d a27a 19b0 842b
	0x0020:  5002 0200 0087 0000 5858 5858 5858 5858
	0x0030:  5858 5858 5858 5858 5858 5858 5858 5858
	0x0040:  5858 5858 5858 5858 5858 5858 5858 5858
	0x0050:  5858 5858 5858 5858 5858 5858 5858 5858
	0x0060:  5858 5858 5858 5858 5858 5858 5858 5858
	0x0070:  5858 5858 5858 5858 5858 5858 5858 5858
	0x0080:  5858 5858 5858 5858 5858 5858 5858 5858
	0x0090:  5858 5858 5858 5858 5858 5858 5858 5858
11:42:06.682635 IP 190-0-175-100.gba.solunet.com.ar.2546 > 184.107.43.74.http: Flags [S], seq 368629672:368629792, win 512, length 120: HTTP
	0x0000:  4500 00a0 658a 0000 4006 c3b3 be00 af64
	0x0010:  b86b 2b4a 09f2 0050 15f8 d7a8 43f3 160b
	0x0020:  5002 0200 55ba 0000 5858 5858 5858 5858
	0x0030:  5858 5858 5858 5858 5858 5858 5858 5858
	0x0040:  5858 5858 5858 5858 5858 5858 5858 5858
	0x0050:  5858 5858 5858 5858 5858 5858 5858 5858
	0x0060:  5858 5858 5858 5858 5858 5858 5858 5858
	0x0070:  5858 5858 5858 5858 5858 5858 5858 5858
	0x0080:  5858 5858 5858 5858 5858 5858 5858 5858
	0x0090:  5858 5858 5858 5858 5858 5858 5858 5858
11:42:06.682652 IP 190-0-175-100.gba.solunet.com.ar.2547 > 184.107.43.74.http: Flags [S], seq 527715727:527715847, win 512, length 120: HTTP
	0x0000:  4500 00a0 e82b 0000 4006 4112 be00 af64
	0x0010:  b86b 2b4a 09f3 0050 1f74 4d8f 1f12 cd60
	0x0020:  5002 0200 43e2 0000 5858 5858 5858 5858
	0x0030:  5858 5858 5858 5858 5858 5858 5858 5858
	0x0040:  5858 5858 5858 5858 5858 5858 5858 5858
	0x0050:  5858 5858 5858 5858 5858 5858 5858 5858
	0x0060:  5858 5858 5858 5858 5858 5858 5858 5858
	0x0070:  5858 5858 5858 5858 5858 5858 5858 5858
	0x0080:  5858 5858 5858 5858 5858 5858 5858 5858
	0x0090:  5858 5858 5858 5858 5858 5858 5858 5858
11:42:06.682668 IP 190-0-175-100.gba.solunet.com.ar.2548 > 184.107.43.74.http: Flags [S], seq 1897998019:1897998139, win 512, length 120: HTTP
	0x0000:  4500 00a0 6f3a 0000 4006 ba03 be00 af64
	0x0010:  b86b 2b4a 09f4 0050 7121 26c3 571a f8d5
	0x0020:  5002 0200 b582 0000 5858 5858 5858 5858
	0x0030:  5858 5858 5858 5858 5858 5858 5858 5858
	0x0040:  5858 5858 5858 5858 5858 5858 5858 5858
	0x0050:  5858 5858 5858 5858 5858 5858 5858 5858
	0x0060:  5858 5858 5858 5858 5858 5858 5858 5858
	0x0070:  5858 5858 5858 5858 5858 5858 5858 5858
	0x0080:  5858 5858 5858 5858 5858 5858 5858 5858
	0x0090:  5858 5858 5858 5858 5858 5858 5858 5858
11:42:06.682684 IP 190-0-175-100.gba.solunet.com.ar.2549 > 184.107.43.74.http: Flags [S], seq 1187006652:1187006772, win 512, length 120: HTTP
	0x0000:  4500 00a0 965a 0000 4006 92e3 be00 af64
	0x0010:  b86b 2b4a 09f5 0050 46c0 48bc 1e0e 134b
	0x0020:  5002 0200 dc80 0000 5858 5858 5858 5858
	0x0030:  5858 5858 5858 5858 5858 5858 5858 5858
	0x0040:  5858 5858 5858 5858 5858 5858 5858 5858
	0x0050:  5858 5858 5858 5858 5858 5858 5858 5858
	0x0060:  5858 5858 5858 5858 5858 5858 5858 5858
	0x0070:  5858 5858 5858 5858 5858 5858 5858 5858
	0x0080:  5858 5858 5858 5858 5858 5858 5858 5858
	0x0090:  5858 5858 5858 5858 5858 5858 5858 5858
11:42:06.682700 IP 190-0-175-100.gba.solunet.com.ar.2550 > 184.107.43.74.http: Flags [S], seq 836414851:836414971, win 512, length 120: HTTP
	0x0000:  4500 00a0 5ae5 0000 4006 ce58 be00 af64
	0x0010:  b86b 2b4a 09f6 0050 31da ad83 7682 b0a3
	0x0020:  5002 0200 96d1 0000 5858 5858 5858 5858
	0x0030:  5858 5858 5858 5858 5858 5858 5858 5858
	0x0040:  5858 5858 5858 5858 5858 5858 5858 5858
	0x0050:  5858 5858 5858 5858 5858 5858 5858 5858
	0x0060:  5858 5858 5858 5858 5858 5858 5858 5858
	0x0070:  5858 5858 5858 5858 5858 5858 5858 5858
	0x0080:  5858 5858 5858 5858 5858 5858 5858 5858
	0x0090:  5858 5858 5858 5858 5858 5858 5858 5858
11:42:06.682717 IP 190-0-175-100.gba.solunet.com.ar.2551 > 184.107.43.74.http: Flags [S], seq 97200857:97200977, win 512, length 120: HTTP
	0x0000:  4500 00a0 bd1a 0000 4006 6c23 be00 af64
	0x0010:  b86b 2b4a 09f7 0050 05cb 2ad9 1842 9779
	0x0020:  5002 0200 bcf4 0000 5858 5858 5858 5858
	0x0030:  5858 5858 5858 5858 5858 5858 5858 5858
	0x0040:  5858 5858 5858 5858 5858 5858 5858 5858
	0x0050:  5858 5858 5858 5858 5858 5858 5858 5858
	0x0060:  5858 5858 5858 5858 5858 5858 5858 5858
	0x0070:  5858 5858 5858 5858 5858 5858 5858 5858
	0x0080:  5858 5858 5858 5858 5858 5858 5858 5858
	0x0090:  5858 5858 5858 5858 5858 5858 5858 5858
11:42:06.682733 IP 190-0-175-100.gba.solunet.com.ar.2552 > 184.107.43.74.http: Flags [S], seq 964382000:964382120, win 512, length 120: HTTP
	0x0000:  4500 00a0 8a66 0000 4006 9ed7 be00 af64
	0x0010:  b86b 2b4a 09f8 0050 397b 4d30 473f 3840
	0x0020:  5002 0200 9728 0000 5858 5858 5858 5858
	0x0030:  5858 5858 5858 5858 5858 5858 5858 5858
	0x0040:  5858 5858 5858 5858 5858 5858 5858 5858
	0x0050:  5858 5858 5858 5858 5858 5858 5858 5858
	0x0060:  5858 5858 5858 5858 5858 5858 5858 5858
	0x0070:  5858 5858 5858 5858 5858 5858 5858 5858
	0x0080:  5858 5858 5858 5858 5858 5858 5858 5858
	0x0090:  5858 5858 5858 5858 5858 5858 5858 5858
11:42:06.682749 IP 190-0-175-100.gba.solunet.com.ar.2553 > 184.107.43.74.http: Flags [S], seq 64311516:64311636, win 512, length 120: HTTP
	0x0000:  4500 00a0 91aa 0000 4006 9793 be00 af64
	0x0010:  b86b 2b4a 09f9 0050 03d5 50dc 4cf9 193b
	0x0020:  5002 0200 e26c 0000 5858 5858 5858 5858
	0x0030:  5858 5858 5858 5858 5858 5858 5858 5858
	0x0040:  5858 5858 5858 5858 5858 5858 5858 5858
	0x0050:  5858 5858 5858 5858 5858 5858 5858 5858
	0x0060:  5858 5858 5858 5858 5858 5858 5858 5858
	0x0070:  5858 5858 5858 5858 5858 5858 5858 5858
	0x0080:  5858 5858 5858 5858 5858 5858 5858 5858
	0x0090:  5858 5858 5858 5858 5858 5858 5858 5858
11:42:06.682765 IP 190-0-175-100.gba.solunet.com.ar.2554 > 184.107.43.74.http: Flags [S], seq 1940462409:1940462529, win 512, length 120: HTTP
	0x0000:  4500 00a0 ab9a 0000 4006 7da3 be00 af64
	0x0010:  b86b 2b4a 09fa 0050 73a9 1b49 1615 376b
	0x0020:  5002 0200 c0de 0000 5858 5858 5858 5858
	0x0030:  5858 5858 5858 5858 5858 5858 5858 5858
	0x0040:  5858 5858 5858 5858 5858 5858 5858 5858
	0x0050:  5858 5858 5858 5858 5858 5858 5858 5858
	0x0060:  5858 5858 5858 5858 5858 5858 5858 5858
	0x0070:  5858 5858 5858 5858 5858 5858 5858 5858
	0x0080:  5858 5858 5858 5858 5858 5858 5858 5858
	0x0090:  5858 5858 5858 5858 5858 5858 5858 5858
11:42:06.682782 IP 190-0-175-100.gba.solunet.com.ar.2555 > 184.107.43.74.http: Flags [S], seq 709004881:709005001, win 512, length 120: HTTP
	0x0000:  4500 00a0 2fc5 0000 4006 f978 be00 af64
	0x0010:  b86b 2b4a 09fb 0050 2a42 8e51 7292 d9e5
	0x0020:  5002 0200 9844 0000 5858 5858 5858 5858
	0x0030:  5858 5858 5858 5858 5858 5858 5858 5858
	0x0040:  5858 5858 5858 5858 5858 5858 5858 5858
	0x0050:  5858 5858 5858 5858 5858 5858 5858 5858
	0x0060:  5858 5858 5858 5858 5858 5858 5858 5858
	0x0070:  5858 5858 5858 5858 5858 5858 5858 5858
	0x0080:  5858 5858 5858 5858 5858 5858 5858 5858
	0x0090:  5858 5858 5858 5858 5858 5858 5858 5858
11:42:06.682798 IP 190-0-175-100.gba.solunet.com.ar.2556 > 184.107.43.74.http: Flags [S], seq 1783812004:1783812124, win 512, length 120: HTTP
	0x0000:  4500 00a0 45d1 0000 4006 e36c be00 af64
	0x0010:  b86b 2b4a 09fc 0050 6a52 cfa4 088b b18d
	0x0020:  5002 0200 a93f 0000 5858 5858 5858 5858
	0x0030:  5858 5858 5858 5858 5858 5858 5858 5858
	0x0040:  5858 5858 5858 5858 5858 5858 5858 5858
	0x0050:  5858 5858 5858 5858 5858 5858 5858 5858
	0x0060:  5858 5858 5858 5858 5858 5858 5858 5858
	0x0070:  5858 5858 5858 5858 5858 5858 5858 5858
	0x0080:  5858 5858 5858 5858 5858 5858 5858 5858
	0x0090:  5858 5858 5858 5858 5858 5858 5858 5858
11:42:06.682814 IP 190-0-175-100.gba.solunet.com.ar.2557 > 184.107.43.74.http: Flags [S], seq 2027959598:2027959718, win 512, length 120: HTTP
	0x0000:  4500 00a0 1331 0000 4006 160d be00 af64
	0x0010:  b86b 2b4a 09fd 0050 78e0 352e 27ff ff1c
	0x0020:  5002 0200 c823 0000 5858 5858 5858 5858
	0x0030:  5858 5858 5858 5858 5858 5858 5858 5858
	0x0040:  5858 5858 5858 5858 5858 5858 5858 5858
	0x0050:  5858 5858 5858 5858 5858 5858 5858 5858
	0x0060:  5858 5858 5858 5858 5858 5858 5858 5858
	0x0070:  5858 5858 5858 5858 5858 5858 5858 5858
	0x0080:  5858 5858 5858 5858 5858 5858 5858 5858
	0x0090:  5858 5858 5858 5858 5858 5858 5858 5858
11:42:06.682832 IP 190-0-175-100.gba.solunet.com.ar.2558 > 184.107.43.74.http: Flags [S], seq 763370841:763370961, win 512, length 120: HTTP
	0x0000:  4500 00a0 0c06 0000 4006 1d38 be00 af64
	0x0010:  b86b 2b4a 09fe 0050 2d80 1d59 1921 25e0
	0x0020:  5002 0200 1373 0000 5858 5858 5858 5858
	0x0030:  5858 5858 5858 5858 5858 5858 5858 5858
	0x0040:  5858 5858 5858 5858 5858 5858 5858 5858
	0x0050:  5858 5858 5858 5858 5858 5858 5858 5858
	0x0060:  5858 5858 5858 5858 5858 5858 5858 5858
	0x0070:  5858 5858 5858 5858 5858 5858 5858 5858
	0x0080:  5858 5858 5858 5858 5858 5858 5858 5858
	0x0090:  5858 5858 5858 5858 5858 5858 5858 5858
11:42:06.682848 IP 190-0-175-100.gba.solunet.com.ar.2559 > 184.107.43.74.http: Flags [S], seq 629902483:629902603, win 512, length 120: HTTP
	0x0000:  4500 00a0 1f51 0000 4006 09ed be00 af64
	0x0010:  b86b 2b4a 09ff 0050 258b 8c93 5fe1 6e9c
	0x0020:  5002 0200 1cb0 0000 5858 5858 5858 5858
	0x0030:  5858 5858 5858 5858 5858 5858 5858 5858
	0x0040:  5858 5858 5858 5858 5858 5858 5858 5858
	0x0050:  5858 5858 5858 5858 5858 5858 5858 5858
	0x0060:  5858 5858 5858 5858 5858 5858 5858 5858
	0x0070:  5858 5858 5858 5858 5858 5858 5858 5858
	0x0080:  5858 5858 5858 5858 5858 5858 5858 5858
	0x0090:  5858 5858 5858 5858 5858 5858 5858 5858
11:42:06.682865 IP 190-0-175-100.gba.solunet.com.ar.2560 > 184.107.43.74.http: Flags [S], seq 1167925997:1167926117, win 512, length 120: HTTP
	0x0000:  4500 00a0 cff5 0000 4006 5948 be00 af64
	0x0010:  b86b 2b4a 0a00 0050 459d 22ed 11bc 1c20
	0x0020:  5002 0200 06e5 0000 5858 5858 5858 5858
	0x0030:  5858 5858 5858 5858 5858 5858 5858 5858
	0x0040:  5858 5858 5858 5858 5858 5858 5858 5858
	0x0050:  5858 5858 5858 5858 5858 5858 5858 5858
	0x0060:  5858 5858 5858 5858 5858 5858 5858 5858
	0x0070:  5858 5858 5858 5858 5858 5858 5858 5858
	0x0080:  5858 5858 5858 5858 5858 5858 5858 5858
	0x0090:  5858 5858 5858 5858 5858 5858 5858 5858
11:42:06.682881 IP 190-0-175-100.gba.solunet.com.ar.2561 > 184.107.43.74.http: Flags [S], seq 1590590930:1590591050, win 512, length 120: HTTP
	0x0000:  4500 00a0 676e 0000 4006 c1cf be00 af64
	0x0010:  b86b 2b4a 0a01 0050 5ece 7dd2 1787 46f9
	0x0020:  5002 0200 6229 0000 5858 5858 5858 5858
	0x0030:  5858 5858 5858 5858 5858 5858 5858 5858
	0x0040:  5858 5858 5858 5858 5858 5858 5858 5858
	0x0050:  5858 5858 5858 5858 5858 5858 5858 5858
	0x0060:  5858 5858 5858 5858 5858 5858 5858 5858
	0x0070:  5858 5858 5858 5858 5858 5858 5858 5858
	0x0080:  5858 5858 5858 5858 5858 5858 5858 5858
	0x0090:  5858 5858 5858 5858 5858 5858 5858 5858
11:42:06.682898 IP 190-0-175-100.gba.solunet.com.ar.2562 > 184.107.43.74.http: Flags [S], seq 1025391341:1025391461, win 512, length 120: HTTP
	0x0000:  4500 00a0 9faf 0000 4006 898e be00 af64
	0x0010:  b86b 2b4a 0a02 0050 3d1e 3aed 5102 9429
	0x0020:  5002 0200 4012 0000 5858 5858 5858 5858
	0x0030:  5858 5858 5858 5858 5858 5858 5858 5858
	0x0040:  5858 5858 5858 5858 5858 5858 5858 5858
	0x0050:  5858 5858 5858 5858 5858 5858 5858 5858
	0x0060:  5858 5858 5858 5858 5858 5858 5858 5858
	0x0070:  5858 5858 5858 5858 5858 5858 5858 5858
	0x0080:  5858 5858 5858 5858 5858 5858 5858 5858
	0x0090:  5858 5858 5858 5858 5858 5858 5858 5858
11:42:06.682915 IP 190-0-175-100.gba.solunet.com.ar.2563 > 184.107.43.74.http: Flags [S], seq 22267219:22267339, win 512, length 120: HTTP
	0x0000:  4500 00a0 b8ea 0000 4006 7053 be00 af64
	0x0010:  b86b 2b4a 0a03 0050 0153 c553 54d7 e505
	0x0020:  5002 0200 9cc4 0000 5858 5858 5858 5858
	0x0030:  5858 5858 5858 5858 5858 5858 5858 5858
	0x0040:  5858 5858 5858 5858 5858 5858 5858 5858
	0x0050:  5858 5858 5858 5858 5858 5858 5858 5858
	0x0060:  5858 5858 5858 5858 5858 5858 5858 5858
	0x0070:  5858 5858 5858 5858 5858 5858 5858 5858
	0x0080:  5858 5858 5858 5858 5858 5858 5858 5858
	0x0090:  5858 5858 5858 5858 5858 5858 5858 5858
11:42:06.682931 IP 190-0-175-100.gba.solunet.com.ar.2564 > 184.107.43.74.http: Flags [S], seq 1838110461:1838110581, win 512, length 120: HTTP
	0x0000:  4500 00a0 f055 0000 4006 38e8 be00 af64
	0x0010:  b86b 2b4a 0a04 0050 6d8f 56fd 4881 004f
	0x0020:  5002 0200 8fea 0000 5858 5858 5858 5858
	0x0030:  5858 5858 5858 5858 5858 5858 5858 5858
	0x0040:  5858 5858 5858 5858 5858 5858 5858 5858
	0x0050:  5858 5858 5858 5858 5858 5858 5858 5858
	0x0060:  5858 5858 5858 5858 5858 5858 5858 5858
	0x0070:  5858 5858 5858 5858 5858 5858 5858 5858
	0x0080:  5858 5858 5858 5858 5858 5858 5858 5858
	0x0090:  5858 5858 5858 5858 5858 5858 5858 5858
11:42:06.682947 IP 190-0-175-100.gba.solunet.com.ar.2565 > 184.107.43.74.http: Flags [S], seq 1314325144:1314325264, win 512, length 120: HTTP
	0x0000:  4500 00a0 ca3a 0000 4006 5f03 be00 af64
	0x0010:  b86b 2b4a 0a05 0050 4e57 0298 72c3 8ea0
	0x0020:  5002 0200 4af3 0000 5858 5858 5858 5858
	0x0030:  5858 5858 5858 5858 5858 5858 5858 5858
	0x0040:  5858 5858 5858 5858 5858 5858 5858 5858
	0x0050:  5858 5858 5858 5858 5858 5858 5858 5858
	0x0060:  5858 5858 5858 5858 5858 5858 5858 5858
	0x0070:  5858 5858 5858 5858 5858 5858 5858 5858
	0x0080:  5858 5858 5858 5858 5858 5858 5858 5858
	0x0090:  5858 5858 5858 5858 5858 5858 5858 5858
11:42:06.682964 IP 190-0-175-100.gba.solunet.com.ar.2566 > 184.107.43.74.http: Flags [S], seq 1221538397:1221538517, win 512, length 120: HTTP
	0x0000:  4500 00a0 7bc7 0000 4006 ad76 be00 af64
	0x0010:  b86b 2b4a 0a06 0050 48cf 325d 5d16 5e45
	0x0020:  5002 0200 66bd 0000 5858 5858 5858 5858
	0x0030:  5858 5858 5858 5858 5858 5858 5858 5858
	0x0040:  5858 5858 5858 5858 5858 5858 5858 5858
	0x0050:  5858 5858 5858 5858 5858 5858 5858 5858
	0x0060:  5858 5858 5858 5858 5858 5858 5858 5858
	0x0070:  5858 5858 5858 5858 5858 5858 5858 5858
	0x0080:  5858 5858 5858 5858 5858 5858 5858 5858
	0x0090:  5858 5858 5858 5858 5858 5858 5858 5858
11:42:06.682980 IP 190-0-175-100.gba.solunet.com.ar.2567 > 184.107.43.74.http: Flags [S], seq 121272366:121272486, win 512, length 120: HTTP
	0x0000:  4500 00a0 7ae4 0000 4006 ae59 be00 af64
	0x0010:  b86b 2b4a 0a07 0050 073a 782e 55f6 9373
	0x0020:  5002 0200 3472 0000 5858 5858 5858 5858
	0x0030:  5858 5858 5858 5858 5858 5858 5858 5858
	0x0040:  5858 5858 5858 5858 5858 5858 5858 5858
	0x0050:  5858 5858 5858 5858 5858 5858 5858 5858
	0x0060:  5858 5858 5858 5858 5858 5858 5858 5858
	0x0070:  5858 5858 5858 5858 5858 5858 5858 5858
	0x0080:  5858 5858 5858 5858 5858 5858 5858 5858
	0x0090:  5858 5858 5858 5858 5858 5858 5858 5858
11:42:06.682997 IP 190-0-175-100.gba.solunet.com.ar.2568 > 184.107.43.74.http: Flags [S], seq 1689815904:1689816024, win 512, length 120: HTTP
	0x0000:  4500 00a0 a0c4 0000 4006 8879 be00 af64
	0x0010:  b86b 2b4a 0a08 0050 64b8 8b60 0376 b0cd
	0x0020:  5002 0200 f8e6 0000 5858 5858 5858 5858
	0x0030:  5858 5858 5858 5858 5858 5858 5858 5858
	0x0040:  5858 5858 5858 5858 5858 5858 5858 5858
	0x0050:  5858 5858 5858 5858 5858 5858 5858 5858
	0x0060:  5858 5858 5858 5858 5858 5858 5858 5858
	0x0070:  5858 5858 5858 5858 5858 5858 5858 5858
	0x0080:  5858 5858 5858 5858 5858 5858 5858 5858
	0x0090:  5858 5858 5858 5858 5858 5858 5858 5858
11:42:06.683013 IP 190-0-175-100.gba.solunet.com.ar.2569 > 184.107.43.74.http: Flags [S], seq 424777574:424777694, win 512, length 120: HTTP
	0x0000:  4500 00a0 0f60 0000 4006 19de be00 af64
	0x0010:  b86b 2b4a 0a09 0050 1951 9766 2902 3d60
	0x0020:  5002 0200 8628 0000 5858 5858 5858 5858
	0x0030:  5858 5858 5858 5858 5858 5858 5858 5858
	0x0040:  5858 5858 5858 5858 5858 5858 5858 5858
	0x0050:  5858 5858 5858 5858 5858 5858 5858 5858
	0x0060:  5858 5858 5858 5858 5858 5858 5858 5858
	0x0070:  5858 5858 5858 5858 5858 5858 5858 5858
	0x0080:  5858 5858 5858 5858 5858 5858 5858 5858
	0x0090:  5858 5858 5858 5858 5858 5858 5858 5858
11:42:06.683038 IP 190-0-175-100.gba.solunet.com.ar.2570 > 184.107.43.74.http: Flags [S], seq 1811461816:1811461936, win 512, length 120: HTTP
	0x0000:  4500 00a0 2b80 0000 4006 fdbd be00 af64
	0x0010:  b86b 2b4a 0a0a 0050 6bf8 b6b8 6e9f 604e
	0x0020:  5002 0200 aba2 0000 5858 5858 5858 5858
	0x0030:  5858 5858 5858 5858 5858 5858 5858 5858
	0x0040:  5858 5858 5858 5858 5858 5858 5858 5858
	0x0050:  5858 5858 5858 5858 5858 5858 5858 5858
	0x0060:  5858 5858 5858 5858 5858 5858 5858 5858
	0x0070:  5858 5858 5858 5858 5858 5858 5858 5858
	0x0080:  5858 5858 5858 5858 5858 5858 5858 5858
	0x0090:  5858 5858 5858 5858 5858 5858 5858 5858
11:42:06.683058 IP 190-0-175-100.gba.solunet.com.ar.2571 > 184.107.43.74.http: Flags [S], seq 891455149:891455269, win 512, length 120: HTTP
	0x0000:  4500 00a0 727a 0000 4006 b6c3 be00 af64
	0x0010:  b86b 2b4a 0a0b 0050 3522 86ad 4d6d de20
	0x0020:  5002 0200 b5e2 0000 5858 5858 5858 5858
	0x0030:  5858 5858 5858 5858 5858 5858 5858 5858
	0x0040:  5858 5858 5858 5858 5858 5858 5858 5858
	0x0050:  5858 5858 5858 5858 5858 5858 5858 5858
	0x0060:  5858 5858 5858 5858 5858 5858 5858 5858
	0x0070:  5858 5858 5858 5858 5858 5858 5858 5858
	0x0080:  5858 5858 5858 5858 5858 5858 5858 5858
	0x0090:  5858 5858 5858 5858 5858 5858 5858 5858
11:42:06.683077 IP 190-0-175-100.gba.solunet.com.ar.2572 > 184.107.43.74.http: Flags [S], seq 378465819:378465939, win 512, length 120: HTTP
	0x0000:  4500 00a0 06a3 0000 4006 229b be00 af64
	0x0010:  b86b 2b4a 0a0c 0050 168e ee1b 0a8c 190d
	0x0020:  5002 0200 74fc 0000 5858 5858 5858 5858
	0x0030:  5858 5858 5858 5858 5858 5858 5858 5858
	0x0040:  5858 5858 5858 5858 5858 5858 5858 5858
	0x0050:  5858 5858 5858 5858 5858 5858 5858 5858
	0x0060:  5858 5858 5858 5858 5858 5858 5858 5858
	0x0070:  5858 5858 5858 5858 5858 5858 5858 5858
	0x0080:  5858 5858 5858 5858 5858 5858 5858 5858
	0x0090:  5858 5858 5858 5858 5858 5858 5858 5858
11:42:06.683096 IP 190-0-175-100.gba.solunet.com.ar.2573 > 184.107.43.74.http: Flags [S], seq 1060801994:1060802114, win 512, length 120: HTTP
	0x0000:  4500 00a0 eba9 0000 4006 3d94 be00 af64
	0x0010:  b86b 2b4a 0a0d 0050 3f3a 8dca 0bdf de60
	0x0020:  5002 0200 e5f9 0000 5858 5858 5858 5858
	0x0030:  5858 5858 5858 5858 5858 5858 5858 5858
	0x0040:  5858 5858 5858 5858 5858 5858 5858 5858
	0x0050:  5858 5858 5858 5858 5858 5858 5858 5858
	0x0060:  5858 5858 5858 5858 5858 5858 5858 5858
	0x0070:  5858 5858 5858 5858 5858 5858 5858 5858
	0x0080:  5858 5858 5858 5858 5858 5858 5858 5858
	0x0090:  5858 5858 5858 5858 5858 5858 5858 5858
11:42:06.683115 IP 190-0-175-100.gba.solunet.com.ar.2574 > 184.107.43.74.http: Flags [S], seq 887047860:887047980, win 512, length 120: HTTP
	0x0000:  4500 00a0 ebf8 0000 4006 3d45 be00 af64
	0x0010:  b86b 2b4a 0a0e 0050 34df 46b4 796f 355e
	0x0020:  5002 0200 72dc 0000 5858 5858 5858 5858
	0x0030:  5858 5858 5858 5858 5858 5858 5858 5858
	0x0040:  5858 5858 5858 5858 5858 5858 5858 5858
	0x0050:  5858 5858 5858 5858 5858 5858 5858 5858
	0x0060:  5858 5858 5858 5858 5858 5858 5858 5858
	0x0070:  5858 5858 5858 5858 5858 5858 5858 5858
	0x0080:  5858 5858 5858 5858 5858 5858 5858 5858
	0x0090:  5858 5858 5858 5858 5858 5858 5858 5858
